:020000040800F2
:1000000048070020310200082516000821160008C4
:100010002316000821090008A919000800000000A3
:10002000000000000000000000000000211900088E
:1000300065090008000000001F19000823190008C6
:100040004B0200084B0200084B0200084B0200085C
:100050004B0200084B0200084B0200084B0200084C
:100060004B0200084B0200084B0200084B0200083C
:100070004B0200084B0200084B0200084B0200082C
:100080004B0200084B0200084B0200084B0200081C
:100090004B0200084B0200084B0200084B0200080C
:1000A0004B0200084B0200084B0200084B020008FC
:1000B0004B0200084B0200084B0200084B020008EC
:1000C0004B0200084B0200084B0200084B020008DC
:1000D0004B0200084B0200084B0200084B020008CC
:1000E0004B0200084B0200084B0200084B020008BC
:1000F0004B0200084B0200084B0200084B020008AC
:100100004B0200084B0200084B0200084B0200089B
:100110004B0200084B0200084B0200084B0200088B
:100120004B0200084B0200084B0200084B0200087B
:100130004B0200084B0200084B0200084B0200086B
:100140004B0200084B0200084B0200084B0200085B
:100150004B0200084B0200084B0200084B0200084B
:100160004B0200084B0200084B0200084B0200083B
:100170004B0200084B0200084B0200080000000080
:100180004B0200084B02000800F002F800F041F8B2
:100190000AA090E8000C82448344AAF10107DA45E2
:1001A00001D100F036F8AFF2090EBAE80F0013F0F3
:1001B000010F18BFFB1A43F0010318479419000000
:1001C000B4190000103A24BF78C878C1FAD8520791
:1001D00024BF30C830C144BF04680C6070470000C1
:1001E0000023002400250026103A28BF78C1FBD840
:1001F000520728BF30C148BF0B607047642900F028
:10020000FD80002070471FB501F094FC1FBD10B5A4
:1002100010BD00F0D8F91146FFF7F5FF01F0D6FB4D
:1002200000F0F6F903B4FFF7F2FF03BC00F0FEF9AB
:100230000948804709480047FEE7FEE7FEE7FEE77A
:10024000FEE7FEE7FEE7FEE7FEE7FEE704480549B6
:10025000054A064B704700009919000889010008FB
:1002600048010020480700204803002048030020E0
:1002700053EA020C00F069802DE9F04B4FF00006C4
:10028000002B1FBFB3FA83F503FA05F424FA05F631
:100290005E4012BF1643B2FA82F502FA05F4C5F1C8
:1002A00020051EBF22FA05FC44EA0C04203556EA5C
:1002B000044C4FEA144418BF641C4FF000084FF080
:1002C0000009904271EB030C39D3002919BFB1FA30
:1002D00081F701FA07F6B0FA80F700FA07F6C7F1DE
:1002E00020071EBF20FA07FC46EA0C062037B6FBA3
:1002F000F4FCA7EB0507103F07F01F0BCBF120061E
:100300000CFA0BFB2CFA06F644BFB3460026202F4E
:10031000A4BF5E464FF0000B5BEA060C08BF4FF02F
:10032000010B19EB0B09ABFB027C48EB0608C01B69
:1003300006FB02CC0BFB03CC71EB0C01C1E70B46B7
:10034000024641464846BDE8F08B13B54FF0000029
:100350004FF00001AFF30080BDE81C407047000083
:100360000FB41CB50C0007AA009001D02044401E19
:10037000074B7B4469460190069800F004F9002C75
:1003800003D06946002000F011F91CBC5DF814FB95
:10039000410200002DE9F0410E4604460020206293
:1003A0002046E168884730B3252805D0D4E90121EB
:1003B0009047206A401CF2E7E16820460027884702
:1003C000050018D0A5F14100192802D820354FF4B6
:1003D00000673246294620462760FFF70FFF40B1ED
:1003E000012804D0F61D26F007060836D8E7361D8A
:1003F000D6E72846DAE7206ABDE8F0812DE9F0412A
:100400000646002410687529314616A510D0AFF3B2
:100410000080002802DA404213A507E031688A070D
:1004200001D512A502E0490704D511A5012401E078
:10043000AFF3008000210A2206F1240709E0B0FB97
:10044000F2FCB0FBF2F302FB1C003030785418468B
:10045000491C0028F3D123462A463046BDE8F04126
:1004600000F032B8000000002D0000002B0000005A
:10047000200000004FF0000200B513469446964657
:10048000203922BFA0E80C50A0E80C50B1F12001A7
:10049000BFF4F7AF090728BFA0E80C5048BF0CC055
:1004A0005DF804EB890028BF40F8042B08BF7047B3
:1004B00048BF20F8022B11F0804F18BF00F8012B25
:1004C00070477047704770472DE9F0470D469946D1
:1004D0009246044600F124080168880604D5E069C4
:1004E00021F01001216000E00120A84201DD471B3E
:1004F00000E00027A1697A1902EB0900081AA0613F
:100500002078C00602D42046AFF30080002608E021
:10051000D4E901211AF806009047206A401C761C95
:1005200020624E45F4DB2078C0060AD52046AFF3A2
:10053000008006E0D4E9012130209047206A401C69
:100540002062381EA7F10107F4DC07E0D4E901219D
:1005500018F805009047206A401C2062281EA5F16B
:100560000105F3DC2046AFF300802078000602D5B9
:100570000220BDE8F0870120FBE7000001694A1C6A
:1005800002610878704700B58FB0CDE901310021D4
:10059000059105497944CDE9031011466846FFF7F6
:1005A000F9FE0FB000BD0000E5FFFFFF0A6802F88A
:1005B000010B0A607047D1E900239A4202D2531C12
:1005C0000B6010707047754600F02CF8AE460500C1
:1005D0006946534620F00700854618B020B5FFF75E
:1005E00035FEBDE820404FF000064FF000074FF009
:1005F00000084FF0000B21F00701AC46ACE8C00941
:10060000ACE8C009ACE8C009ACE8C0098D46704749
:1006100010B50446AFF300802046BDE81040FFF758
:1006200001BE000000487047E80000200149182082
:10063000ABBEFEE726000200704700007FB5002435
:1006400010480094019402940D490394C0E90014E9
:1006500084600461047680F820400B49C0E90A14E4
:100660000125C561C46080F83040456100F025FA7D
:10067000CDE9004569460348029400F075F97FBD55
:1006800000200140100000200100000F7FB5002471
:1006900010480094019402940D490394C0E9001499
:1006A00084600461047680F820400B49C0E90A1494
:1006B0000125C561C46080F83040456100F0FDF956
:1006C0000095CDE901546946024800F04DF97FBD1F
:1006D00000210140580000200100000F7FB50024D8
:1006E00011480094019402940E490394C0E9001447
:1006F00084600461047680F820400C49C0E90A1443
:100700000125C561C46080F83040456100F0D5F92D
:100710000220CDE9000569460294034800F024F95F
:100720007FBD000000220140A00000200100000F5A
:10073000084808B5016841F001010160006800F057
:1007400001000090FFF77AFFFFF7A0FFBDE8084027
:10075000FFF7C4BF30380240464910B54A6822F45A
:1007600040324A604A6843681A434A6001684A68EE
:1007700022F480724A6001684A68036942EA0322EF
:100780004A6001684A6822F040724A6001684A681B
:1007900083681A434A6001688A6822F400628A60AA
:1007A00001688A68C3681A438A60816A6FF0706260
:1007B000D14201688A6822F070628A6001688A68A2
:1007C0000CD0836A1A438A6001688A6822F040521A
:1007D0008A6001688A68C36A1A4301E022F04052C5
:1007E0008A6001688A6822F002028A6001688A6869
:1007F000037E42EA43028A6090F8201000290168D3
:100800004A680FD042F400624A6001684A6822F4E4
:1008100060424A6001684A68174C436A04EB4333FC
:100820001A4301E022F400624A600168CA6A22F4B5
:100830007002CA620168CA6A838B104C04EB0353CE
:100840001A43CA6201688A6822F400728A600168E9
:100850008A6890F8303042EA43228A6001688A68E8
:1008600022F480628A6001688A68406942EA8020D6
:10087000886010BD0023014000E0FFFF0000F0FF92
:100880007CB50446254800F0F7F94FF0FF352946BE
:10089000224800F09BF9214800F00CF982B240F6A2
:1008A000E4404243100BADF800001C4800F062FA2F
:1008B0001A48483000F0E0F918482946483000F05E
:1008C00085F91648483000F0F5F882B240F6E44069
:1008D0004243100BADF802001048483000F04AFACD
:1008E0000E48903000F0C8F90C482946903000F0CE
:1008F0006DF90A48903000F0DDF881B240F6E4402E
:100900004143080BADF804000448903000F032FA7F
:1009100000982060BDF80400A0807CBD100000207D
:10092000FEE700000A4800B5026887B0002142F0E7
:10093000100202600068029100F010000590802013
:10094000CDE900016946034800F044FA07B000BD54
:1009500030380240000002408021014800F032BBE4
:10096000001002407047000078B50024009490F811
:100970003C20012A19D0012280F83C200A68072374
:100980000568092A13D9EE680A3A02EB420293403D
:100990009E43EE600B788A680A3B03EB43039A4060
:1009A0000368DD682A43DA6010E0022078BD2E6912
:1009B00002EB420293409E432E610B788A6803EB60
:1009C00043039A4003681D692A431A614A681F233A
:1009D000072A13D205686E6B521E02EB8202934007
:1009E0009E436E630B790A885B1E92B203EB83030E
:1009F0009A4003685D6B2A435A6327E005680D2A15
:100A000012D22E6BD21F02EB820293409E432E63C2
:100A10000B790A88DB1F92B203EB83039A400368C9
:100A20001D6B2A431A6311E0EE6A0D3A02EB820253
:100A300093409E43EE620B790A880D3B92B203EB22
:100A400083039A400368DD6A2A43DA62164B05681D
:100A5000144A9D4206D10D68122D03D1556845F404
:100A60008005556005689D4218D10B68102B01D098
:100A7000112B13D1536843F4000353600968102904
:100A80000CD10A490A4A0968B1FBF2F101EB810174
:100A9000490000E0491E00910029FBD180F83C404C
:100AA000002078BD00230140002001400C00002000
:100AB00040420F000068C06C704770B504004FF0F2
:100AC000000503D0206C002610B107E0012070BDA6
:100AD000204600F01DF8666484F83C60206CC00677
:100AE00010D4206C20F4885040F00200206420468E
:100AF000FFF732FE6664206C20F0020040F0010037
:100B0000206400E0012584F83C60284670BD0000A8
:100B100070B586B0044614216846FFF7ABFC274A3F
:100B2000254E256800232549143A03242448B5425C
:100B300011D10D6845F480750D60096801F480716C
:100B40000591116841F001011160116801F0010186
:100B50000591012113E01B4EB54218D10D6845F4F3
:100B600000750D60096801F400710591116841F08C
:100B700001011160116801F0010105910221CDE927
:100B800000140293694600F025F906B070BD0E4EC0
:100B9000B542FAD10D6845F480650D60096801F42D
:100BA00080610591116841F001011160116801F047
:100BB000010105910421E2E7002001404438024090
:100BC0000000024000210140002201402DE9F041D7
:100BD000044600680D4681684FF0000749050BD5B3
:100BE0008068C00508D5206C40F02000206484F89F
:100BF0003C700120BDE8F08100F0EAF9064613E000
:100C0000681C11D025B100F0E3F9801BA8420BD974
:100C100020680068800707D4206C40F0040020643E
:100C200084F83C700320E5E7206800688007E7D57A
:100C300021686FF012000860206C40F4007020649E
:100C40002068816811F0405F13D1217E89B9C16AA3
:100C500011F4700F02D0806840050AD4206C20F493
:100C600080702064206CC00403D4206C40F001002C
:100C700020640020BEE7000018B50021009190F824
:100C80003C20012A07D0012280F83C2002689368AA
:100C9000DB0702D011E0022018BD936843F0010386
:100CA00093602E4A2E4B1268B2FBF3F202EB420223
:100CB00000E0521E0092002AFBD102689368DB0715
:100CC00042D0036C40F20164A34343F48073036495
:100CD00053685B0505D5036C23F4005343F480533C
:100CE0000364036CDB0404D5436C23F00603436404
:100CF00000E0416480F83C101A496FF02203136051
:100D000049680068CA06184906D0884224D181681B
:100D100011F0405F13D01FE08842F8D0134A904290
:100D200003D1D1F80423D206F1D0114A904213D155
:100D3000D1F8041301F01F011029E8D30CE08168F9
:100D400041F08041816007E0016C41F010010164D5
:100D5000416C41F001014164002018BD0C000020ED
:100D600040420F00002301400020014000210140CB
:100D70000022014090F83C1001290CD0012180F89C
:100D80003C1001688A6822F001028A600168896863
:100D9000C90702D007E002207047016C21F4885196
:100DA00041F001010164002180F83C1008467047C1
:100DB00070B5044600F00CF90546601C02D00448EA
:100DC0000078044400F004F9401BA042FAD370BD3F
:100DD000000000202DE9F84FDFF8BCA1002201251A
:100DE00003264FF00F090AF1040BAAF1040E00BF0D
:100DF0000B6805FA02F42340A34270D10F7907F083
:100E00000307012F01D0022F16D187684FEA42084D
:100E100006FA08FC27EA0C07D1F80CC00CFA08FC0B
:100E20004CEA070CC0F808C04768A7430C79C4F324
:100E3000001494403C4344600C79E443A4070AD076
:100E4000C4684FEA420C06FA0CF7BC438F6807FAF5
:100E50000CF72743C7600C7904F00304022C12D16D
:100E6000D40800EB840CDCF820405707FF0E09FA89
:100E700007F824EA0804D1F8108008FA07F848EACD
:100E80000408CCF8208004684FEA420C06FA0CF7FC
:100E9000BC430F7907F0030707FA0CF727430760F5
:100EA0004C6814F4403F70D03C4C276847F48047AE
:100EB0002760246822F0030704F480440094384C2F
:100EC00007EB040CDCF8084897074FEA177809FA93
:100ED00008F7BC43334FB84202D1002724E054E066
:100EE000314FB84201D101271EE0304FB84201D145
:100EF000022719E02E4FB84201D1032714E02D4FED
:100F0000B84201D104270FE02B4FB84201D1052789
:100F10000AE02A4FB84201D1062705E0284FB8421F
:100F200001D1072700E0082707FA08F72743CCF884
:100F30000878DAF800405746D1F804C09C435FEACD
:100F4000CC2C00D51C433C60DBF800405F46D1F858
:100F500004C09C435FEA8C2C00D51C433C60DEF847
:100F600000407746D1F804C09C435FEA8C3C00D532
:100F70001C433C60084F083F3C68D1F804C09C43C8
:100F80005FEACC3C00D51C433C60521C102AFFF4A5
:100F90002FAFBDE8F88F0000083C01404438024004
:100FA00000300140000002400004024000080240FE
:100FB000000C0240001002400014024000180240E1
:100FC000001C02400069084000D00120704700006A
:100FD00001488068704700000000002002488168D6
:100FE0000278114481607047000000200B4810B562
:100FF000016841F400710160016841F480610160A1
:10100000016841F480710160032000F061F80F2055
:1010100000F006F800F024F8002010BD003C02406B
:1010200070B50D4D04464FF47A712878B1FBF0F09D
:101030000A490968B1FBF0F000F0DEFA48B9102C5B
:1010400007D200222146501E00F022F800206C60DA
:1010500070BD012070BD0000000000200C000020C9
:101060000A4808B5016841F480410160006800F455
:10107000804000900548001F016841F080510160E8
:10108000006800F08050009008BD00004438024025
:10109000F0B40E4B1B680C46C3F30223C3F10705E3
:1010A000042D00D90425191D072901D2002300E0D1
:1010B000DB1E012606FA05F1491E214099409E409B
:1010C000761E16403143F0BC00F06FBC0CED00E022
:1010D000064900F0070208684FF6FF03184040EA8F
:1010E0000220034A10430860704700000CED00E046
:1010F0000000FA052DE9F0470E46050065D0DFF83F
:101100001481D8F80000F7B200F00700B04207D20F
:1011100088F80070D8F8000000F00700B04254D101
:1011200028683D4C810712D5400703D5206840F45C
:10113000E05020602878000703D5206840F4604024
:1011400020602068A96820F0F0000843206028781B
:10115000C0072DD0304968680839012812D002280C
:1011600013D0032811D00968890700292DDA2168D6
:1011700021F0030101432160FFF72AFF814641F27C
:10118000883A0EE009688903EFE709688901ECE70E
:10119000FFF71EFFA0EB0901514502D90320BDE86E
:1011A000F0872068696800F00C00B0EB810FEFD188
:1011B000D8F80010404601F00701B14207D9077086
:1011C000006800F00700B04201D00120E7E728786E
:1011D000400705D52068E96820F4E0500843206006
:1011E0002878000706D52068296920F4604040EA85
:1011F000C100206000F018F82168084AC1F303110B
:10120000515CC8400649086006480068FFF708FFBF
:101210000020C4E7003C0240083802403E1B0008A2
:101220000C00002004000020154810B5006810F0E4
:101230000C02144813D01449042A0FD0082A0ED1E6
:101240000F4C241F2268236802F03F025B0207D57F
:101250002068C0F38810A0FB010106E0084610BD1D
:101260002168C1F38811A1FB00010023FFF700F8FA
:101270002168C1F30141491C4900B0FBF1F010BDE8
:10128000083802400024F40040787D012DE9F84F31
:1012900004006ED02078DFF84C93C007A9F1040554
:1012A0004AD009F104000168C1F38101012908D085
:1012B0000068C0F3810002280AD1D9F8000040027A
:1012C00006D52868800337D560680028E1D033E070
:1012D0006068B0F5803F10D0B0F5A02F286810D01E
:1012E00020F480302860286820F48020286060681E
:1012F000A8B1FFF76DFE06460DE0286840F4803087
:10130000F4E740F480202860F7E700BFFFF760FEB5
:10131000801B642873D828688003F7D50CE0FFF79A
:1013200057FE064605E000BFFFF752FE801B64280B
:10133000F0D828688003F7D42078DFF8AC828007E3
:101340004FF0000A3ED5A748001D016811F00C0FB0
:1013500008D00068C0F3810002280BD1D9F8000042
:10136000400207D42868800716D5E068012800D11C
:1013700012E033E1E068B8B10120C8F80000FFF7DF
:1013800027FE064605E000BFFFF722FE801B02286D
:10139000C0D828688007F7D52868216920F0F800B0
:1013A00040EAC10028600DE0C8F800A0FFF710FE79
:1013B000064604E0FFF70CFE801B02281FD82868B1
:1013C0008007F7D42078000722D5864F87486169C7
:1013D000703771B101210160FFF7FAFD064604E0A4
:1013E000FFF7F6FD801B022809D838688007F7D57B
:1013F0000EE0C0F800A0FFF7EBFD064605E082E036
:10140000FFF7E6FD801B02287DD838688007F7D4F7
:101410002078400768D5DFF8CCB100270BF13C0BF2
:10142000DBF80000C0000BD4DBF8001041F0805165
:10143000CBF80010DBF80000012700F0805000908E
:101440006B4E3068C00510D4306840F48070306056
:10145000FFF7BEFD009005E0FFF7BAFD0099401AC6
:10146000022850D83068C005F6D55E4EA0686C36AC
:1014700001280FD00528306810D020F0010030601E
:10148000306820F004003060A068B8B1FFF7A0FD1C
:1014900000900FE0306840F00100F4E740F00400F5
:1014A0003060F7E7FFF794FD0099411A41F2883068
:1014B000814266D830688007F4D50EE0FFF788FDDA
:1014C000009007E0FFF784FD0099411A41F288304F
:1014D000814256D830688007F4D42FB1DBF8001071
:1014E00021F08051CBF80010A069C8B33D49091D17
:1014F0000968C1F3810102294AD00228504607D069
:10150000C8F8600000E03CE0FFF762FD04463BE005
:101510004746C8F86000FFF75BFD064605E000BFE0
:10152000FFF756FD801B02282BD828688001F7D4CE
:10153000D4E907010843A16A2E4A490802EB014198
:10154000626A41EA8211084394F82C1040EA016172
:10155000C9F8001001203866FFF73AFD044606E09E
:101560003EE000BFFFF734FD001B022809D82868C1
:101570008001F7D534E000BFFFF72AFD001B0228E9
:1015800002D90320BDE8F88F28688001F4D427E051
:101590000128F7D0D9F80000E26900F480019142F7
:1015A0001CD1226A00F03F01914217D147F6C07169
:1015B000626A0140B1EB821F10D1A26A4FF0FF3383
:1015C00000F4403103EB5202B1EB024F06D194F824
:1015D0002C1000F07060B0EB016F01D00120D1E75A
:1015E0000020CFE70438024000004742800E474207
:1015F000007000400000FFFF10B5401EB0F1807F7A
:1016000001D3012010BD4FF0E02460610F2160176D
:1016100000F0CBF90020A06107202061002010BD60
:10162000FEE7FEE7FEE7000000B500BF00F09AF815
:101630000028FBD1012108465DF804EB00F020B939
:1016400030B50C464FEA000500F08CF80028FBD1BD
:101650004CB1012C0CD1E8B240F0C001BDE83040E3
:10166000012000F00DB905F03F0040F08001F5E7E2
:1016700030BD0000F0B53748016841F0010101605C
:10168000016841F002010160016841F00801016058
:10169000314C0F20214600F0D9F8304D002029466A
:1016A00000F0D4F82946012000F0D0F829460220A5
:1016B00000F0CCF84FF40040A061284C4FF4E0203B
:1016C00018342060264E04253146284600F0BEF826
:1016D0006D1C082DF8DB00BF00F044F80028FBD19A
:1016E0001F4A1432106820F0FF00401C106042F2C4
:1016F0001076304600F07AF804252560304600F078
:1017000075F82F042760106820F0FF002830106063
:10171000304600F06BF82560304600F067F827602F
:1017200000F020F80028FBD12821012000F0A8F8C3
:1017300000F018F80028FBD10C21012000F0A0F8DF
:1017400000F010F80028FBD1BDE8F0400621012090
:1017500000F096B830380240000002400004024019
:10176000000C0240F0B51F4D0424002229462046FB
:1017700000F05EF8641C082CF7DB322000F036F82D
:10178000194C4FF48030206002202060322000F09D
:101790002DF804222260322000F028F81148103081
:1017A0000068C6B2322000F021F84FF4802727608D
:1017B000322000F01BF82260322000F017F827607A
:1017C00004272946384600F041F87F1C082FF8DB33
:1017D0004FF400302060322000F008F806F080005E
:1017E000F0BD0000000C0240180402400E4908B58C
:1017F00091ED000A9FED0D1A00EBC000F8EE400AD3
:10180000C0F39B0080EE810A00EE900AF8EE600AB9
:1018100020EE800ABCEEC00A8DED000A0098411E41
:101820000091FBD208BD00000C0000200024744B86
:1018300010B54300032098400C68C04304400C607E
:10184000CC689A4004401443CC6010BD70B545008C
:101850000322AA400B68D2430124134004FA05F680
:1018600033430B604B688440A3434B60886802237A
:101870001040AB4018438860C8681040C86070BD15
:10188000F0B5144A032822D001281FD100041060AB
:10189000114C206801F0F00320F0F0002568184397
:1018A00061F3071520603220FFF7A0FF04261660C1
:1018B0003220FFF79BFF3704176025603220FFF7C7
:1018C00095FF16603220FFF791FF1760F0BD0120F1
:1018D000DDE7000018040240140C024010B5044675
:1018E000FFF740FF0028FBD12146BDE81040032050
:1018F000FFF7C6BF30B50D46044608E0FFF732FFDC
:101900000028FBD114F8011B0320FFF7B9FF207852
:10191000002803D0281EA5F10105EFDC30BD70477B
:101920007047FFF75BBB000010B592B030216846EE
:10193000FEF7A0FD14210CA8FEF79CFD144800241E
:10194000016841F080510160006800F08050119002
:101950001048016841F4804101600068069400F479
:1019600080401190022000900120039010200490EC
:101970006846FFF78BFC0F20CDE90C040E940F9402
:1019800000210CA81094FFF7B5FB12B010BD0000A9
:1019900040380240007000400248016841F4700184
:1019A0000160704788ED00E0FEE70907090E002896
:1019B00004DB00F1E02080F80014704700F00F0015
:1019C00000F1E02080F8141D704700001FB5FFF7FC
:1019D0000DFBFFF7A9FFFEF7ABFEFFF74BFEFEF78F
:1019E000A1FFFFF721FE0D211FA0FFF783FF0024B9
:1019F0008DF800404FF47A752846FFF7D9F9FFF7C4
:101A000013FE02A8FEF73CFF0298CDF80200BDF8D5
:101A10000C009DF80010ADF8060039B101290AD07C
:101A200002290DD0032910D08DF80040DDE9000116
:101A300000F04AF80DE0DDE9000100F037F808E0B9
:101A4000DDE9000100F016F803E0DDE9000100F037
:101A50001FF8FEF781FF0028CED09DF80010491C2A
:101A60008DF80010C8E700004C6F6164696E672E46
:101A70002E2E000010B500210F20FFF7E1FD4620BB
:101A8000FFF72CFF0021BDE810400846FFF7D8BD46
:101A900010B500210F20FFF7D3FD4820FFF71EFFF0
:101AA0000021BDE810400846FFF7CABD10B500216F
:101AB0000F20FFF7C5FDDE20FFF710FF0021BDE876
:101AC00010400846FFF7BCBD30B505460C4689B04E
:101AD00000210F20FFF7B4FD5420FFF7FFFE002187
:101AE0000846FFF7ADFDA0B200902B0C0CA20F2111
:101AF00001A8FEF735FC230C0CA2102105A8FEF767
:101B00002FFC0F2101A8FFF7F5FE01210020FFF7B0
:101B100097FD102105A8FFF7EDFE09B030BD0000CC
:101B2000413A256420423A2564000000433A256486
:101B3000000000004FF04070E1EE100A7047000016
:101B4000000000000000010203040607080900006D
:101B5000701B00080000002010000000C4010008F5
:101B6000801B00081000002038070000E00100087A
:101B70000100000010000000000000000024F4003C
:040000050800018965
:00000001FF
