:020000040800F2
:10000000900C00204D020008B3270008712600085C
:10001000B127000801180008352B00080000000077
:10002000000000000000000000000000AD2A0008F1
:10003000B519000800000000AB2A0008AF2A00082C
:1000400067020008670200086702000867020008EC
:1000500067020008670200086702000867020008DC
:1000600067020008670200086702000867020008CC
:1000700067020008670200086702000867020008BC
:1000800067020008670200086702000867020008AC
:10009000670200086702000867020008670200089C
:1000A000670200086702000867020008670200088C
:1000B000670200086702000867020008670200087C
:1000C000670200086702000867020008670200086C
:1000D000670200086702000867020008670200085C
:1000E000670200086702000867020008670200084C
:1000F000670200086702000867020008670200083C
:10010000670200086702000867020008670200082B
:10011000670200086702000867020008670200081B
:10012000670200086702000867020008670200080B
:1001300067020008670200086702000867020008FB
:1001400067020008670200086702000867020008EB
:1001500067020008670200086702000867020008DB
:1001600067020008670200086702000867020008CB
:10017000670200086702000867020008000000002C
:10018000670200086702000800F002F800F04FF86C
:100190000AA090E8000C82448344AAF10107DA45E2
:1001A00001D100F044F8AFF2090EBAE80F0013F0E5
:1001B000010F18BFFB1A43F00103184788440000E1
:1001C000A8440000103A24BF78C878C1FAD8520772
:1001D00024BF30C830C144BF04680C6070470000C1
:1001E0000023002400250026103A28BF78C1FBD840
:1001F000520728BF30C148BF0B607047662904F022
:100200003C81642900F03281632900F038840020A9
:1002100070471FB504F027F900F03EFC04000020F1
:10022000002103F00DFCE0601FBD10B510BD00F013
:1002300037FD1146FFF7EDFF03F01AFA00F055FD08
:1002400003B4FFF7F2FF03BC00F098FD09488047B4
:1002500009480047FEE7FEE7FEE7FEE7FEE7FEE7A8
:10026000FEE7FEE7FEE7FEE704480549054A064BC0
:1002700070470000252B0008890100089006002027
:10028000900C0020900800209008002053EA020CF7
:1002900000F069802DE9F04B4FF00006002B1FBFE6
:1002A000B3FA83F503FA05F424FA05F65E4012BFAB
:1002B0001643B2FA82F502FA05F4C5F120051EBF15
:1002C00022FA05FC44EA0C04203556EA044C4FEAB5
:1002D000144418BF641C4FF000084FF0000990420E
:1002E00071EB030C39D3002919BFB1FA81F701FA78
:1002F00007F6B0FA80F700FA07F6C7F120071EBF2D
:1003000020FA07FC46EA0C062037B6FBF4FCA7EB04
:100310000507103F07F01F0BCBF120060CFA0BFB73
:100320002CFA06F644BFB3460026202FA4BF5E4633
:100330004FF0000B5BEA060C08BF4FF0010B19EB06
:100340000B09ABFB027C48EB0608C01B06FB02CC8A
:100350000BFB03CC71EB0C01C1E70B460246414697
:100360004846BDE8F08B13B54FF000004FF0000198
:10037000AFF30080BDE81C40704700000FB41CB50F
:100380000C0007AA009001D02044401E074B7B447C
:1003900069460190069800F048FB002C03D069469E
:1003A000002000F055FB1CBC5DF814FBC9060000E2
:1003B0002DE9F0410E460446002020622046E16807
:1003C000884730B3252805D0D4E901219047206A19
:1003D000401CF2E7E168204600278847050018D056
:1003E000A5F14100192802D820354FF400673246A4
:1003F000294620462760FFF701FF40B1012804D0BD
:10040000F61D26F007060836D8E7361DD6E728463B
:10041000DAE7206ABDE8F08170B50C460546012A8E
:1004200005D02878800600D5EA69002302E0012380
:1004300005E05B1C934202D2E05C0028F9D1A86978
:10044000E618C01AA861286A184428622846AFF343
:10045000008004E0D5E9012114F8010B9047B44273
:10046000F8D32846AFF3008070BD00002DE9F041BD
:100470000646002410687529314616A510D0AFF342
:100480000080002802DA404213A507E031688A079D
:1004900001D512A502E0490704D511A5012401E008
:1004A000AFF3008000210A2206F1240709E0B0FB27
:1004B000F2FCB0FBF2F302FB1C003030785418461B
:1004C000491C0028F3D123462A463046BDE8F041B6
:1004D00000F03DB8000000002D0000002B000000DF
:1004E000200000004FF0000200B5134694469646E7
:1004F000203922BFA0E80C50A0E80C50B1F1200137
:10050000BFF4F7AF090728BFA0E80C5048BF0CC0E4
:100510005DF804EB890028BF40F8042B08BF704742
:1005200048BF20F8022B11F0804F18BF00F8012BB4
:10053000704770477047704710B500F0B1FA006817
:1005400010BD10B5044600F0ABFA046010BD2DE9F3
:10055000F0470D4699469246044600F1240801688A
:10056000880604D5E06921F01001216000E0012037
:10057000A84201DD471B00E00027A1697A1902EBC0
:100580000900081AA0612078C00602D42046AFF303
:100590000080002608E0D4E901211AF806009047FF
:1005A000206A401C761C20624E45F4DB2078C00691
:1005B0000AD52046AFF3008006E0D4E901213020BF
:1005C0009047206A401C2062381EA7F10107F4DC26
:1005D00007E0D4E9012118F805009047206A401C83
:1005E0002062281EA5F10105F3DC2046AFF3008050
:1005F0002078000602D50220BDE8F0870120FBE745
:1006000070472DE9FF4F0C461E464FF0FF378BB069
:10061000D2E90001DDF860800A908A46C1F30A55EC
:1006200005B93D46002108464FF00000BAF1000F21
:1006300000F4400005DA00EB80004FF4400101EACD
:1006400050004FEA9059B9F1010F00DDB9460A9800
:1006500050EA4A000ED044F61050A5F2FF3545434B
:100660002F14B8F1000F1ED07542291E1EDDC9F1EE
:1006700000021CE0B8F1010F4FF0000001D0302162
:1006800003E0F24305E02154401CB042FBDB30465E
:100690000022002121540B99C1F80880C1E90020F3
:1006A0000FB0BDE8F08FBD1B6D1CDEE74A4600DAD7
:1006B000694206A800F07EFA06AB93E8070003AB98
:1006C00083E8070050460A9900F05FFB8DE80700B9
:1006D000A0F500501F3800900398002D0ADD42F26B
:1006E0001F014A460844002303A90390684600F00E
:1006F000C8FD09E0A0F500504A461F38002303A9B1
:100700000390684600F0D2FD8DE807000004000C5D
:1007100003D04FF0FF30410800E01046B8F1000F61
:1007200003D00022009215461EE0751E05D400F08D
:10073000BBF9303262556D1EF9D5B346012208432C
:1007400002D000227F1C04E02078302801D1002252
:100750007F1E002A099784D01DE0112D07DA00F0D2
:10076000A3F9303262556D1C50EA0102F5D10843FD
:1007700002D00098C8B10EE00021681E05E0235C9D
:10078000625C63542254401E491C8142F7DBAB4635
:10079000A81B401E0990002004F80B000B98099A32
:1007A000C0F80880C0E9002B7AE711264FF0000856
:1007B00057E72DE9F04F88460446D21D22F0070185
:1007C00091B0D1E90001CDE90A0102F0B4F9024685
:1007D0000B98C00F01D02D2007E02068810701D5BC
:1007E0002B2002E0202101EAC000032A099001D059
:1007F000072A05DB03464146204600F09BF90BE142
:100800002078800601D5E06900E00620B8F1650F88
:10081000814606D0B8F1660F18D0B8F1670F70D1D5
:1008200031E00020B9F1110F009001DB112301E04C
:1008300009F101030AAA01A90CA8FFF7E2FEDDE90C
:100840000C70002609F10105834647E001204B4664
:1008500000904FF000470AAA01A90CA8FFF7D1FEAB
:10086000DDE90DB00C995D46002610B909F10100D3
:100870000D18B9EB050003D4C0F1FF3609F10105ED
:10088000A5EB09002BE0B9F1010F01DA4FF00109E6
:100890000020B9F1110F0090484601DD112300E05E
:1008A00003460AAA01A90CA8FFF7ABFEDDE90C700C
:1008B0004D4600268346207800070AD4AB4500DA6F
:1008C0005D4601A8012D04DD411911F8011C3029F4
:1008D00007D04F4502DA17F1040F04DA01208246EF
:1008E0000FE06D1EEEE7002F02DCED1B3E4403E03F
:1008F000781CA84200DD7D1CB81B00F1010A4FF0F6
:1009000000472078000703D4AA4501DB4FF0FF3AE7
:100910000021B7F1004F0DF143088DF8431024D0AA
:1009200002202B23002F01DA7F422D230A21021EF1
:10093000A0F1010000DC5FB197FBF1FC97FBF1F245
:1009400001FB1C7C17460CF1300C08F801CDEEE7DA
:10095000A8F1010003702188090501D5452100E0B7
:100960006521A0F1010800F8011C09980FA9A1EB6D
:100970000807FF1D00B10120411901EBEA70A169D0
:100980003844081A401EA0612078C00602D42046D0
:10099000AFF30080099828B1D4E901219047206A7B
:1009A000401C20622078C00622D52046AFF300808C
:1009B0001EE0002E04DBB34502DD01A8805D00E0EF
:1009C0003020D4E901219047206A401C2062761C27
:1009D000AAF101005FEA000A0AD100F05DF8C068E0
:1009E0000168405CD4E901219047206A401C2062E4
:1009F000281EA5F10105DCDC07E0D4E9012118F887
:100A0000010B9047206A401C2062381EA7F10107A5
:100A1000F3DC2046AFF30080032011B041E6000074
:100A200001694A1C02610878704700B58FB0CDE9B2
:100A300001310021059105497944CDE903101146A2
:100A40006846FFF7B5FC0FB000BD0000E5FFFFFFF3
:100A50000A6802F8010B0A607047D1E900239A4244
:100A600002D2531C0B601070704710B5436913B16C
:100A7000AFF3008001E0FFF7CFFC012010BD12783A
:100A800000F124010A7000224A700122EDE711688A
:100A90004FF0FF32E9E70000004870474C060020A5
:100AA000004870472C06002030B5B0F10A024FEA2A
:100AB000900E71F100034EEA817EB0EB0E0061EB07
:100AC00091014FEA101E4EEA017E10EB0E0041EB41
:100AD00011114FEA102E4EEA016E10EB0E0041EBA1
:100AE00011214FEA104E4EEA014E10EB0E0041EB81
:100AF0001141401841F100014FEAD00040EA417035
:100B00004FEAD10110EB80054FEA810444EA90746A
:100B100044EB01046D1944EB0404521BA3414FF054
:100B2000000348BF0A3200D530BD401C41F100012E
:100B300030BD00002DE9F0411F4604460326016840
:100B4000072A01F4006004DB08B116A505E016A52C
:100B500003E008B115A500E015A521F01000206004
:100B6000A069C01EA0610FB1401EA0612046AFF376
:100B700000804FB1D4E9012138469047206A401CDB
:100B80002062C01C206206E0206AFAE7D4E9012155
:100B900015F8010B9047761EF8D22046AFF300807F
:100BA000BDE8F0814E414E006E616E00494E460038
:100BB000696E66002DE9F047814616468AB03548D1
:100BC00078440DC88DE80D0032487844801C03AC91
:100BD0000DC884E80D0041F69B300844372190FB96
:100BE000F1F290FBF1F5A5F1800501FB12041B3C2D
:100BF00002D56442012000E00020DFF898A0804682
:100C00000027FA44AAF1BE0A0EE0E0070AD03246F5
:100C1000684607EB470101230AEB810100F046FB20
:100C20008DE8070064107F1C002CEED1194F7F4423
:100C3000AE3F19E0E80715D007EB04100DF1180AD4
:100C400090E80E008AE80E00C068F04201D19819C1
:100C500008903246012306A903A800F027FB03AB46
:100C600083E807006D10641C002DE3D14FF00103F1
:100C700032466946B8F1000F03A802D000F001FB2C
:100C800001E000F013FBC9E90001C9F808200AB02F
:100C9000BDE8F087683A0000004870472C06002045
:100CA0007546FFF7F9FFAE4605006946534620F04A
:100CB0000700854618B020B5FFF7D6FABDE82040FA
:100CC0004FF000064FF000074FF000084FF0000B08
:100CD00021F00701AC46ACE8C009ACE8C009ACE8BB
:100CE000C009ACE8C0098D46704710B50446AFF3A3
:100CF00000802046BDE81040FFF7A2BA4FF0013C4B
:100D000050F8042B51F8043B9A4221D1A2EB0C037A
:100D1000934313EACC1317D150F8042B51F8043B3A
:100D20009A4215D1A2EB0C03934313EACC130BD1D7
:100D300050F8042B51F8043B9A4209D1A2EB0C0362
:100D4000934313EACC13DBD04FF00000704700BF91
:100D5000D01A01BAB1FA81F101F0180122FA01F0BA
:100D6000CB40C1F12001DBB2C0B2C01A2CFA01F3B2
:100D7000D11A914311EAC311E6D1704701491820F5
:100D8000ABBEFEE72600020070475FEA400C08BFDA
:100D900091F0000F4FEA8C234FEAC12243EA5151F0
:100DA0004FEA1C5018BF00F5F0404FEA300018BF62
:100DB00041F000415FEA6C5C00F02980BCF1FF3F2C
:100DC00008BF40F080407047130C06BF12044FF07C
:100DD000100C4FF0000C130E04BF12020CF1080CA3
:100DE000130F04BF12010CF1040C930F04BF920007
:100DF0000CF1020CD30F04BF52000CF1010C114690
:100E00004FF00002A0F11F00A0EB0C00704711F0A2
:100E1000004F08BF704731F000413FF4D5AF0B0CD5
:100E200006BF09044FF0100C4FF0000C0B0E04BF6E
:100E300009020CF1080C0B0F04BF09010CF1040CA2
:100E40008B0F04BF89000CF1020CCB0F04BF4900CB
:100E50000CF1010CCCF12003A0EB0C0022FA03F3FF
:100E600002FA0CF241EA030100F10100704720F0A0
:100E70007F4C80EA030023F07F47ACEB070303F5C8
:100E80007C5300F0004003F1FF032DE980494FEA55
:100E9000154B09B44FEA144325EA0B4E24EA0348E4
:100EA0000FF2042606EB132749083E785FEA320268
:100EB00003FB0667C7F5000707FB06F64FEA543742
:100EC0004FEAD64606F1020607FB066CCCF1005C41
:100ED0004FEA1C472CEA074C07FB06F40CFB06F50F
:100EE00004EB15464FEA961634BF00204FF0004041
:100EF0004FEAD13706FB07FC4FEA1C4C0CFB0BF703
:100F0000D21B03FB0CF761EB07010CFB0EF7B0EBF8
:100F1000074072EB17420CFB08F734BFA2EB074205
:100F2000B2EB074261EB17414FEA0C444FEA9107DD
:100F300006FB07FC4FEA1C4C0CFB0BF7B0EBC74061
:100F400072EB573203FB0CF734BFA2EBC742B2EB94
:100F5000C74261EB57310CFB0EF7B0EBC70072EBE9
:100F600057720CFB08F734BFA2EBC702B2EBC70203
:100F700061EB5771039F4FEA816141EA921104EBE3
:100F8000CC044FEAD1374FEA826206FB07FC42EA03
:100F900090124FEA80604FEA1C4C0CFB0BF7D21BFF
:100FA00003FB0CF761EB07010CFB0EF7B0EB0740FE
:100FB00072EB17420CFB08F734BFA2EB0742B2EB0F
:100FC000074261EB17414FEA8C554FEA910704EB5A
:100FD0009C2406FB07FC4FEA1C4C0CFB0BF7B0EB08
:100FE000C74072EB573203FB0CF734BFA2EBC7428A
:100FF000B2EBC74261EB57310CFB0EF7B0EBC70009
:1010000072EB57720CFB08F734BFA2EBC702B2EBCE
:10101000C70261EB577115EB4C254FEA816141EA3C
:1010200092114FEA82624FEAD13742EA901206FBF0
:1010300007FC44F100044FEA80604FEA1C4C0CFBB3
:101040000BF7D21B03FB0CF761EB07010CFB0EF750
:10105000B0EB074072EB17420CFB08F734BFA2EB72
:101060000742B2EB074261EB174115EB1C154FEA43
:10107000813141EA92414FEA823242EA90424FEA9C
:1010800080304FEA0C7644F1000448EA03434EEA0C
:101090000B484FF0000EB2EB080C71EB030724BFB6
:1010A000624639464EEB0E0E4FF0000B00185241CF
:1010B00049414BEB0B0BB2EB080C71EB03077BF1D7
:1010C000000B24BF624639464EEB0E0E4FF0000B6C
:1010D0000018524149414BEB0B0BB2EB080C71EB82
:1010E00003077BF1000B24BF624639464EEB0E0E20
:1010F00051EA020718BF46F0010616EB0E7655F1CD
:10110000000254F1000103D5BDE88901BDE8008863
:10111000BDE88901BDE80048B619524141EB010123
:10112000A3F10103704780807F7E7D7C7B7A797894
:10113000777676757473727171706F6E6E6D6C6C9C
:101140006B6A6A696868676666656464636362613E
:101150006160605F5F5E5E5D5D5C5C5B5B5A5A59BF
:10116000595858575756565555555454535352522B
:101170005251515050504F4F4F4E4E4D4D4D4C4C83
:101180004C4B4B4B4A4A4A494949484848474747CC
:101190004746464645454544444444434343434209
:1011A000424242414141002B9C4630D477002BD033
:1011B0001CB54FEA370703B44FF010004FF0100191
:1011C000BAF1000F06D0BCF1000FDCBF40F0080000
:1011D00040F008014FF000000FBCBDE810400BF1DB
:1011E000010BBBF1010F08BF5FEA170722BF12F125
:1011F000010211F101014FF0004143F1000300F041
:10120000004043EA00007047F9D35708D0E746EAA8
:10121000064613F1400F4FEA16461FDD13F1200F6B
:10122000DFBF16430A46002120335B42BED0C3F124
:10123000200746EA064602FA07F74FEA164646EA4C
:101240000706C3F1200722FA03F201FA07F721FA91
:1012500003F14FF0000342EA0702A7E746EA02065D
:1012600046EA06464FEA164646EA0106BCBF46EA8B
:101270000646360C4FF000034FF000024FF000011D
:1012800094E72DE9804C9A46934670B491E8380073
:1012900007C831EA400C48BF34EA430C03D5FFF7D6
:1012A000E6FDFFF780FFF0BCBDE8008C2DE9804C27
:1012B0009A46934670B491E8380007C810F0804F02
:1012C00008BF13F0804F03D100F005F8FFF76BFF64
:1012D000F0BCBDE8008C20F07F4780EA030023F0DB
:1012E0007F4C07EB0C03A3F57C5300F00040A3F107
:1012F000FE0392F0000F00F0B38095F0000F00F0B5
:1013000077802DE901494FEA11404FEA144621EA5E
:10131000004800FB06FC24EA064708FB06F607FB2C
:1013200008F800FB07F718EB06484CEB164C4FEAA1
:10133000124B18EB07484FEA15464CEB174022EAD0
:101340000B4E0BFB06FC25EA06470EFB06F607FBD9
:101350000EFE0BFB07F71EEB064E4CEB164C4FF048
:1013600000061EEB074E4CEB174B18EB0B0840F139
:10137000000018EB0E0B58EB000840F100008F1A2C
:101380004FF000013CBFC943661B14BFB5EB040C12
:1013900000213CBFC943F61B4FEA17444EEA8E0EAC
:1013A00027EA04454FEA1C4704FB07622CEA074C76
:1013B00005FB07F70CFB05F604FB0CFC16EB0746D8
:1013C00042EB174216EB0C4642EB1C421BEB0606A7
:1013D00058EB0202414146EA9E0601D5BDE801896B
:1013E000B619524141EB0101A3F10103BDE80189A6
:1013F0004FEA14454FEA114724EA054621EA074C13
:1014000005FB07F406FB07F70CFB06F105FB0CFCDC
:1014100011EB074144EB17444FEA124711EB0C4123
:1014200044EB1C4422EA074C05FB07F206FB07F7D6
:101430000CFB06F605FB0CFC16EB074642EB1742CD
:1014400016EB0C4642EB1C456A1854F1000148BFEC
:101450007047B619524141EB0101A3F101037047F6
:1014600095F0000F37D04FEA11424FEA144721EAB6
:10147000024624EA074C02FB07F106FB07F70CFBC8
:1014800006F402FB0CFC14EB074441EB17414FEA56
:10149000154714EB0C4441EB1C4125EA074C02FBB9
:1014A00007F506FB07F70CFB06F602FB0CFC16EB38
:1014B000074645EB174516EB0C4645EB1C42121947
:1014C00051F1000148BF7047B619524141EB01018B
:1014D000A3F1010370474FEA14454FEA114724EA8C
:1014E000054621EA074C05FB07F106FB07F70CFB55
:1014F00006F24FF0000605FB0CFC12EB074241EB35
:10150000174112EB0C4251EB1C4148BF7047921837
:1015100041EB0101A3F10103704700007FB50024F6
:1015200010480094019402940D490394C0E90014FA
:1015300084600461047680F820400B49C0E90A14F5
:101540000125C561C46080F83040456100F0DDFAD6
:10155000CDE9004569460348029400F02DFA7FBDAD
:1015600000200140140000200100000F7FB500247E
:1015700010480094019402940D490394C0E90014AA
:1015800084600461047680F820400B49C0E90A14A5
:101590000125C561C46080F83040456100F0B5FAAE
:1015A0000095CDE901546946024800F005FA7FBD77
:1015B000002101405C0000200100000F7FB50024E5
:1015C00011480094019402940E490394C0E9001458
:1015D00084600461047680F820400C49C0E90A1454
:1015E0000125C561C46080F83040456100F08DFA86
:1015F0000220CDE9000569460294034800F0DCF9B9
:101600007FBD000000220140A40000200100000F67
:10161000084808B5016841F001010160006800F068
:1016200001000090FFF77AFFFFF7A0FFBDE8084038
:10163000FFF7C4BF30380240464910B54A6822F46B
:1016400040324A604A6843681A434A6001684A68FF
:1016500022F480724A6001684A68036942EA032200
:101660004A6001684A6822F040724A6001684A682C
:1016700083681A434A6001688A6822F400628A60BB
:1016800001688A68C3681A438A60816A6FF0706271
:10169000D14201688A6822F070628A6001688A68B3
:1016A0000CD0836A1A438A6001688A6822F040522B
:1016B0008A6001688A68C36A1A4301E022F04052D6
:1016C0008A6001688A6822F002028A6001688A687A
:1016D000037E42EA43028A6090F8201000290168E4
:1016E0004A680FD042F400624A6001684A6822F4F6
:1016F00060424A6001684A68174C436A04EB43330E
:101700001A4301E022F400624A600168CA6A22F4C6
:101710007002CA620168CA6A838B104C04EB0353DF
:101720001A43CA6201688A6822F400728A600168FA
:101730008A6890F8303042EA43228A6001688A68F9
:1017400022F480628A6001688A68406942EA8020E7
:10175000886010BD0023014000E0FFFF0000F0FFA3
:101760007CB50446254800F0AFFA4FF0FF35294616
:10177000224800F053FA214800F0C4F982B240F642
:10178000E4404243100BADF800001C4800F01AFB87
:101790001A48483000F098FA18482946483000F0B6
:1017A0003DFA1648483000F0ADF982B240F6E44008
:1017B0004243100BADF802001048483000F002FB25
:1017C0000E48903000F080FA0C482946903000F026
:1017D00025FA0A48903000F095F981B240F6E440CD
:1017E0004143080BADF804000448903000F0EAFAD9
:1017F00000982060BDF80400A0807CBD140000208B
:10180000FEE700000B4800B5026887B0002142F0F7
:1018100010020260006800F0100005908020CDE901
:101820000001022002906946034800F0FBFA07B06D
:1018300000BD0000303802400000024010B5802199
:10184000064800F0E7FB06490A78824201D10128E8
:1018500001D0087010BD002010BD00000010024033
:10186000000000203348016841F001010160314966
:1018700010310A6842F000520A60026842F4001215
:101880000260086840F0080008602B48016841F4D5
:10189000407101602949002008600920091D086085
:1018A00026481C38016841F48071016025482449AC
:1018B000C0F8A8102449C0F8AC101021C0F8A4103A
:1018C00050F8A01F21F0606141F0406101600168A3
:1018D00041F440310160016821F400710160016848
:1018E00041F480610160016841F480710160016828
:1018F00021F0C00141F040010160016821F4C041C4
:1019000041F480410160016821F4C05141F48051EB
:101910000160016841F0010101600948083801686F
:1019200041F00101016005482838016841F00101DA
:10193000016070473038024000000240280C00402F
:101940000874004000600240EC050020154810B506
:1019500050F8A01F21F00101016013490A6822F02C
:1019600001020A60114A136883F0010313600F4CEF
:101970000123283423601E23241D23600A4B0833CF
:1019800083600B4BC3608B154360036843F0010316
:101990000360086840F001000860106840F0010032
:1019A000106010BD0060024000740040000C004058
:1019B000EC0000207047000078B50024009490F8F7
:1019C0003C20012A19D0012280F83C200A68072314
:1019D0000568092A13D9EE680A3A02EB42029340DD
:1019E0009E43EE600B788A680A3B03EB43039A4000
:1019F0000368DD682A43DA6010E0022078BD2E69B2
:101A000002EB420293409E432E610B788A6803EBFF
:101A100043039A4003681D692A431A614A681F23D9
:101A2000072A13D205686E6B521E02EB82029340A6
:101A30009E436E630B790A885B1E92B203EB8303AD
:101A40009A4003685D6B2A435A6327E005680D2AB4
:101A500012D22E6BD21F02EB820293409E432E6362
:101A60000B790A88DB1F92B203EB83039A40036869
:101A70001D6B2A431A6311E0EE6A0D3A02EB8202F3
:101A800093409E43EE620B790A880D3B92B203EBC2
:101A900083039A400368DD6A2A43DA62164B0568BD
:101AA000144A9D4206D10D68122D03D1556845F4A4
:101AB0008005556005689D4218D10B68102B01D038
:101AC000112B13D1536843F40003536009681029A4
:101AD0000CD10A490A4A0968B1FBF2F101EB810114
:101AE000490000E0491E00910029FBD180F83C40EC
:101AF000002078BD0023014000200140100000209C
:101B000040420F000068C06C704770B504004FF091
:101B1000000503D0206C002610B107E0012070BD45
:101B2000204600F01DF8666484F83C60206CC00616
:101B300010D4206C20F4885040F00200206420462D
:101B4000FFF77AFD6664206C20F0020040F001008F
:101B5000206400E0012584F83C60284670BD000048
:101B600070B586B0044614216846FEF7BBFC274AD0
:101B7000254E256800232549143A03242448B542FC
:101B800011D10D6845F480750D60096801F480710C
:101B90000591116841F001011160116801F0010126
:101BA0000591012113E01B4EB54218D10D6845F493
:101BB00000750D60096801F400710591116841F02C
:101BC00001011160116801F0010105910221CDE9C7
:101BD00000140293694600F025F906B070BD0E4E60
:101BE000B542FAD10D6845F480650D60096801F4CD
:101BF00080610591116841F001011160116801F0E7
:101C0000010105910421E2E700200140443802402F
:101C10000000024000210140002201402DE9F04176
:101C2000044600680D4681684FF0000749050BD552
:101C30008068C00508D5206C40F02000206484F83E
:101C40003C700120BDE8F08100F0EAF9064613E09F
:101C5000681C11D025B100F0E3F9801BA8420BD914
:101C600020680068800707D4206C40F004002064DE
:101C700084F83C700320E5E7206800688007E7D51A
:101C800021686FF012000860206C40F4007020643E
:101C90002068816811F0405F13D1217E89B9C16A43
:101CA00011F4700F02D0806840050AD4206C20F433
:101CB00080702064206CC00403D4206C40F00100CC
:101CC00020640020BEE7000018B50021009190F8C4
:101CD0003C20012A07D0012280F83C20026893684A
:101CE000DB0702D011E0022018BD936843F0010326
:101CF00093602E4A2E4B1268B2FBF3F202EB4202C3
:101D000000E0521E0092002AFBD102689368DB07B4
:101D100042D0036C40F20164A34343F48073036434
:101D200053685B0505D5036C23F4005343F48053DB
:101D30000364036CDB0404D5436C23F006034364A3
:101D400000E0416480F83C101A496FF022031360F0
:101D500049680068CA06184906D0884224D18168BB
:101D600011F0405F13D01FE08842F8D0134A904230
:101D700003D1D1F80423D206F1D0114A904213D1F5
:101D8000D1F8041301F01F011029E8D30CE0816899
:101D900041F08041816007E0016C41F01001016475
:101DA000416C41F001014164002018BD1000002089
:101DB00040420F000023014000200140002101406B
:101DC0000022014090F83C1001290CD0012180F83C
:101DD0003C1001688A6822F001028A600168896803
:101DE000C90702D007E002207047016C21F4885136
:101DF00041F001010164002180F83C100846704761
:101E000070B5044600F00CF90546601C02D0044889
:101E10000078044400F004F9401BA042FAD370BDDE
:101E2000040000202DE9F84FDFF8BCA100220125B5
:101E300003264FF00F090AF1040BAAF1040E00BFAC
:101E40000B6805FA02F42340A34270D10F7907F022
:101E50000307012F01D0022F16D187684FEA4208ED
:101E600006FA08FC27EA0C07D1F80CC00CFA08FCAB
:101E70004CEA070CC0F808C04768A7430C79C4F3C4
:101E8000001494403C4344600C79E443A4070AD016
:101E9000C4684FEA420C06FA0CF7BC438F6807FA95
:101EA0000CF72743C7600C7904F00304022C12D10D
:101EB000D40800EB840CDCF820405707FF0E09FA29
:101EC00007F824EA0804D1F8108008FA07F848EA6D
:101ED0000408CCF8208004684FEA420C06FA0CF79C
:101EE000BC430F7907F0030707FA0CF72743076095
:101EF0004C6814F4403F70D03C4C276847F480474E
:101F00002760246822F0030704F480440094384CCE
:101F100007EB040CDCF8084897074FEA177809FA32
:101F200008F7BC43334FB84202D1002724E054E005
:101F3000314FB84201D101271EE0304FB84201D1E4
:101F4000022719E02E4FB84201D1032714E02D4F8C
:101F5000B84201D104270FE02B4FB84201D1052729
:101F60000AE02A4FB84201D1062705E0284FB842BF
:101F700001D1072700E0082707FA08F72743CCF824
:101F80000878DAF800405746D1F804C09C435FEA6D
:101F9000CC2C00D51C433C60DBF800405F46D1F8F8
:101FA00004C09C435FEA8C2C00D51C433C60DEF8E7
:101FB00000407746D1F804C09C435FEA8C3C00D5D2
:101FC0001C433C60084F083F3C68D1F804C09C4368
:101FD0005FEACC3C00D51C433C60521C102AFFF445
:101FE0002FAFBDE8F88F0000083C014044380240A4
:101FF000003001400000024000040240000802409E
:10200000000C024000100240001402400018024080
:10201000001C02400069084000D001207047000009
:102020000148806870470000040000200248816871
:102030000278114481607047040000200B4810B5FD
:10204000016841F400710160016841F48061016040
:10205000016841F480710160032000F061F80F20F5
:1020600000F006F800F024F8002010BD003C02400B
:1020700070B50D4D04464FF47A712878B1FBF0F03D
:102080000A490968B1FBF0F000F0DEFA48B9102CFB
:1020900007D200222146501E00F022F800206C607A
:1020A00070BD012070BD0000040000201000002061
:1020B0000A4808B5016841F480410160006800F4F5
:1020C000804000900548001F016841F08051016088
:1020D000006800F08050009008BD000044380240C5
:1020E000F0B40E4B1B680C46C3F30223C3F1070583
:1020F000042D00D90425191D072901D2002300E071
:10210000DB1E012606FA05F1491E214099409E403A
:10211000761E16403143F0BC00F025BD0CED00E00A
:10212000064900F0070208684FF6FF03184040EA2E
:102130000220034A10430860704700000CED00E0E5
:102140000000FA052DE9F0470E46050065D0DFF8DE
:102150001481D8F80000F7B200F00700B04207D2AF
:1021600088F80070D8F8000000F00700B04254D1A1
:1021700028683D4C810712D5400703D5206840F4FC
:10218000E05020602878000703D5206840F46040C4
:1021900020602068A96820F0F000084320602878BB
:1021A000C0072DD0304968680839012812D00228AC
:1021B00013D0032811D00968890700292DDA216876
:1021C00021F0030101432160FFF72AFF814641F21C
:1021D000883A0EE009688903EFE709688901ECE7AE
:1021E000FFF71EFFA0EB0901514502D90320BDE80E
:1021F000F0872068696800F00C00B0EB810FEFD128
:10220000D8F80010404601F00701B14207D9077025
:10221000006800F00700B04201D00120E7E728780D
:10222000400705D52068E96820F4E05008432060A5
:102230002878000706D52068296920F4604040EA24
:10224000C100206000F018F82168084AC1F30311AA
:10225000515CC8400649086006480068FFF708FF5F
:102260000020C4E7003C0240083802407E440008D9
:102270001000002008000020154810B5006810F07C
:102280000C02144813D01449042A0FD0082A0ED186
:102290000F4C241F2268236802F03F025B0207D51F
:1022A0002068C0F38810A0FB010106E0084610BDBD
:1022B0002168C1F38811A1FB00010023FDF7E6FFAF
:1022C0002168C1F30141491C4900B0FBF1F010BD88
:1022D000083802400024F40040787D012DE9F84FD1
:1022E00004006ED02078DFF84C93C007A9F10405F4
:1022F0004AD009F104000168C1F38101012908D025
:102300000068C0F3810002280AD1D9F80000400219
:1023100006D52868800337D560680028E1D033E00F
:102320006068B0F5803F10D0B0F5A02F286810D0BD
:1023300020F480302860286820F4802028606068BD
:10234000A8B1FFF76DFE06460DE0286840F4803026
:10235000F4E740F480202860F7E700BFFFF760FE55
:10236000801B642873D828688003F7D50CE0FFF73A
:1023700057FE064605E000BFFFF752FE801B6428AB
:10238000F0D828688003F7D42078DFF8AC82800783
:102390004FF0000A3ED5A748001D016811F00C0F50
:1023A00008D00068C0F3810002280BD1D9F80000E2
:1023B000400207D42868800716D5E068012800D1BC
:1023C00012E033E1E068B8B10120C8F80000FFF77F
:1023D00027FE064605E000BFFFF722FE801B02280D
:1023E000C0D828688007F7D52868216920F0F80050
:1023F00040EAC10028600DE0C8F800A0FFF710FE19
:10240000064604E0FFF70CFE801B02281FD8286850
:102410008007F7D42078000722D5864F8748616966
:10242000703771B101210160FFF7FAFD064604E043
:10243000FFF7F6FD801B022809D838688007F7D51A
:102440000EE0C0F800A0FFF7EBFD064605E082E0D5
:10245000FFF7E6FD801B02287DD838688007F7D497
:102460002078400768D5DFF8CCB100270BF13C0B92
:10247000DBF80000C0000BD4DBF8001041F0805105
:10248000CBF80010DBF80000012700F0805000902E
:102490006B4E3068C00510D4306840F480703060F6
:1024A000FFF7BEFD009005E0FFF7BAFD0099401A66
:1024B000022850D83068C005F6D55E4EA0686C364C
:1024C00001280FD00528306810D020F001003060BE
:1024D000306820F004003060A068B8B1FFF7A0FDBC
:1024E00000900FE0306840F00100F4E740F0040095
:1024F0003060F7E7FFF794FD0099411A41F2883008
:10250000814266D830688007F4D50EE0FFF788FD79
:10251000009007E0FFF784FD0099411A41F28830EE
:10252000814256D830688007F4D42FB1DBF8001010
:1025300021F08051CBF80010A069C8B33D49091DB6
:102540000968C1F3810102294AD00228504607D008
:10255000C8F8600000E03CE0FFF762FD04463BE0A5
:102560004746C8F86000FFF75BFD064605E000BF80
:10257000FFF756FD801B02282BD828688001F7D46E
:10258000D4E907010843A16A2E4A490802EB014138
:10259000626A41EA8211084394F82C1040EA016112
:1025A000C9F8001001203866FFF73AFD044606E03E
:1025B0003EE000BFFFF734FD001B022809D8286861
:1025C0008001F7D534E000BFFFF72AFD001B022889
:1025D00002D90320BDE8F88F28688001F4D427E0F1
:1025E0000128F7D0D9F80000E26900F48001914297
:1025F0001CD1226A00F03F01914217D147F6C07109
:10260000626A0140B1EB821F10D1A26A4FF0FF3322
:1026100000F4403103EB5202B1EB024F06D194F8C3
:102620002C1000F07060B0EB016F01D00120D1E7F9
:102630000020CFE70438024000004742800E4742A6
:10264000007000400000FFFF10B5401EB0F1807F19
:1026500001D3012010BD4FF0E02460610F2160170D
:1026600000F081FA0020A06107202061002010BD49
:10267000FEE7000070B500242DED068B9FED42AA09
:10268000424DDFED438A9FED439B9FED448A00BF9F
:1026900000EE104AB8EEC00A20EE280A20EE0A0A20
:1026A00010EE100A01F06EFE41EC100B00F06CFA17
:1026B00053EC192B51EC100B01F070FC01F0E2F916
:1026C00000EE100A30EE080ABCEEC00A10EE100A46
:1026D00045F82400641CFF2CDADD324D9FED30AA52
:1026E000002400BF00EE104AB8EEC00A20EE280A0F
:1026F00020EE0A0A10EE100A01F044FE41EC100B25
:1027000000F042FA53EC192B51EC100B01F046FC8F
:1027100001F0B8F900EE100A30EE080ABCEEC00A6B
:1027200010EE100A45F82400641C402CDADB1F4D23
:102730009FED1DAA002400BF00EE104AB8EEC00AAB
:1027400020EE280A20EE0A0A10EE100A01F01AFE06
:1027500041EC100B00F018FA53EC192B51EC100B54
:1027600001F01CFC01F08EF900EE100A30EE080AB0
:10277000BCEEC00A10EE100A45F82400641C102CB0
:10278000DADBBDEC068B70BD0000803BEC00002066
:10279000DB0FC940000000000060834000001B44C4
:1027A0000000803CEC0400200000803DEC0500208F
:1027B000FEE7FEE700B500BF00F09AF80028FBD165
:1027C000012108465DF804EB00F020B930B50C4655
:1027D0004FEA000500F08CF80028FBD14CB1012C29
:1027E0000CD1E8B240F0C001BDE83040012000F05B
:1027F0000DB905F03F0040F08001F5E730BD000065
:10280000F0B53748016841F001010160016841F00D
:1028100002010160016841F008010160314C0F20A4
:10282000214600F0D9F8304D0020294600F0D4F8B8
:102830002946012000F0D0F82946022000F0CCF80B
:102840004FF40040A061284C4FF4E0201834206081
:10285000264E04253146284600F0BEF86D1C082D92
:10286000F8DB00BF00F044F80028FBD11F4A143207
:10287000106820F0FF00401C106042F210763046D5
:1028800000F07AF804252560304600F075F82F0432
:102890002760106820F0FF0028301060304600F0FC
:1028A0006BF82560304600F067F8276000F020F8EC
:1028B0000028FBD12821012000F0A8F800F018F82A
:1028C0000028FBD10C21012000F0A0F800F010F846
:1028D0000028FBD1BDE8F0400621012000F096B8A9
:1028E000303802400000024000040240000C024068
:1028F000F0B51F4D042400222946204600F05EF862
:10290000641C082CF7DB322000F036F8194C4FF429
:102910008030206002202060322000F02DF8042258
:102920002260322000F028F8114810300068C6B24A
:10293000322000F021F84FF480272760322000F089
:102940001BF82260322000F017F827600427294680
:10295000384600F041F87F1C082FF8DB4FF40030B8
:102960002060322000F008F806F08000F0BD000082
:10297000000C0240180402400E4908B591ED000A0F
:102980009FED0D1A00EBC000F8EE400AC0F39B006B
:1029900080EE810A00EE900AF8EE600A20EE800ACE
:1029A000BCEEC00A8DED000A0098411E0091FBD2DA
:1029B00008BD0000100000200024744B10B5430037
:1029C000032098400C68C04304400C60CC689A40D7
:1029D00004401443CC6010BD70B545000322AA40EA
:1029E0000B68D2430124134004FA05F633430B600D
:1029F0004B688440A3434B60886802231040AB407F
:102A000018438860C8681040C86070BDF0B5144AAB
:102A1000032822D001281FD100041060114C206827
:102A200001F0F00320F0F0002568184361F307156A
:102A300020603220FFF7A0FF042616603220FFF747
:102A40009BFF3704176025603220FFF795FF166063
:102A50003220FFF791FF1760F0BD0120DDE7000095
:102A600018040240140C024010B50446FFF740FF62
:102A70000028FBD12146BDE810400320FFF7C6BF68
:102A800030B50D46044608E0FFF732FF0028FBD1C1
:102A900014F8011B0320FFF7B9FF2078002803D0AA
:102AA000281EA5F10105EFDC30BD70477047FFF728
:102AB000BDBA000010B592B030216846FDF712FD96
:102AC00014210CA8FDF70EFD14480024016841F004
:102AD00080510160006800F080501190104801683A
:102AE00041F4804101600068069400F48040119038
:102AF0000220009001200390102004906846FFF708
:102B0000EDFB0F20CDE90C040E940F9400210CA8CE
:102B10001094FFF717FB12B010BD000040380240C0
:102B2000007000400248016841F470010160704784
:102B300088ED00E0FEE703B401984100009850EAF8
:102B4000C12018BF04204A0D18BF40F0010040F218
:102B5000FF72B2EB515F08BF40F00200012808BFCE
:102B6000052002B070470907090E002804DB00F1B8
:102B7000E02080F80014704700F00F0000F1E02022
:102B800080F8141D7047000010B52F499FED2C1BD5
:102B90002DED020B84B0059820F000408842DCBF88
:102BA00000209DED040B32DD2849884209D10498AC
:102BB00040B94FF00100FDF7C4FC00F03DFC06B049
:102BC00010BD05DB9DED040B00F02AFC06B010BD26
:102BD00068469DED040B00F03BF810F0030011D0A7
:102BE000012818D09DED021B9DED000B02281AD084
:102BF00000F04AFA51EC100B00F038FF06B041EC3F
:102C0000100B10BD9DED021B9DED000B012000F08F
:102C10006FFB06B010BD9DED021B9DED000B00F09B
:102C200033FA06B010BD012000F062FB51EC100B2E
:102C300000F01CFF06B041EC100B10BD00000000BE
:102C40000000000000000000FB21E93F0000F07FD1
:102C50002DE9F14F04462DED020B2DED088B8AB0C6
:102C60009FEDE70B80ED020B139EE74826F0004531
:102C700085420ADC9DED120B002084ED000B0AB0AA
:102C8000BDEC088B03B0BDE8F08FE0489FEDE0ABF2
:102C90009FEDE1BBA84247DDE14F9FEDE39B9FED38
:102CA000E48B9DED120B53EC1A2B51EC100B002E04
:102CB0001CDD01F07DFA41EC100BBD4208D053EC55
:102CC0001B2B51EC100B01F073FAC4E900010BE06F
:102CD00053EC192B51EC100B01F06AFA53EC182B42
:102CE00001F066FAC4E900010120C8E700F0FCFE2B
:102CF00041EC100BBD4208D053EC1B2B51EC100BD8
:102D000000F0F2FEC4E900010BE053EC192B51EC8A
:102D1000100B00F0E9FE53EC182B00F0E5FEC4E9BF
:102D200000014FF0FF30AAE7C348A84279DB9DEDD0
:102D3000120B51EC100B00F035FC41EC180B9FED21
:102D4000C00B53EC102B01F029F99FEDBF1B53EC86
:102D5000112B00F0C9FE01F0C7F8074601F0F3F8A7
:102D600041EC190B53EC1A2B01F018F953EC182B0A
:102D700001F012FA41EC180B53EC1B2B51EC190B20
:102D800001F00CF9DFF8C8A241EC100B4FEA15581E
:102D90000125FA4453EC102B51EC180B01F008FA02
:102DA000032DC4E900013DD0C1F30A5005EB4511E4
:102DB000A8EB00001139814234DA0AEB051BB0EEB2
:102DC00048AA9BED000BF0EE68AA53EC102B51ECD7
:102DD000190B01F0E3F841EC1B0B51EC1A0B53EC0F
:102DE0001B2B01F0E5F941EC180B51EC1A0B53ECDD
:102DF000182B01F0DDF953EC1B2B01F0D9F99BEDF9
:102E0000020B41EC1A0B53EC102B51EC190B01F097
:102E1000C5F853EC1A2B01F0CBF941EC100B6D1CEB
:102E2000B8E70EE0002EA8BF3846BFF628AF94EDF5
:102E3000000B51EC100B00F019FEC4E900017842C0
:102E40001DE7C6F3130040F4801EC6F30A50A0F23B
:102E5000F530471100F01F05C5F12000DDF848B03E
:102E600008900020069007900520EC467949002D37
:102E700007EB0002794408BF51F8221009D051F83D
:102E8000223001EB8201AB404A68089922FA01F135
:102E90001943A1FB0E26A1FB0B131A449A4234BF1F
:102EA0000123002303EB06080CEB8003D3E901A602
:102EB0000E448E4234BF0121002192448A4411B154
:102EC000924502D903E0924501D2012100E00021A0
:102ED000C3E901A641444CF82010011EA0F10100F5
:102EE000C4DC029800F10050850F0298DDE9036709
:102EF0008000DDF8148001F026F841EC1A0B304612
:102F000001F038F89FED541B53EC112B01F046F8FB
:102F100041EC1B0B384601F02DF89FED511B53EC93
:102F2000112B01F03BF841EC180B404601F022F860
:102F30009FED4D1B53EC112B01F030F841EC190BB8
:102F400051EC180B53EC192B00F0CEFD53EC1B2B5E
:102F500000F0CAFD53EC1A2B00F0C6FDCDE90801C4
:102F6000002008909DED080B53EC1A2B51EC100B30
:102F700001F01EF953EC1B2B01F01AF953EC182B3E
:102F800001F016F953EC192B01F006F99FED381BEF
:102F900053EC112B01F002F89FED370B41EC180BAD
:102FA00053EC102B9DED080B51EC100B00F0F6FFCD
:102FB00053EC182B00F098FD9FED310B41EC180BF2
:102FC00053EC102B9DED080B51EC100B00F0E6FFBD
:102FD00053EC182B00F088FD41EC100B139810F007
:102FE000004F06D06D4251EC100B00F03FFD41EC5C
:102FF000100B284684ED000B41E6000000000000A5
:103000000000000000000000FB21E93F7CD90240E5
:1030100000004054FB21F93F3163621A61B4D03D96
:10302000FB21F93F000000000000601A61B4D03DB0
:103030007370032E8A19A33BFB2139410000000065
:1030400083C8C96D305FE43F000000000000E03F2E
:103050002A17000078160000000000000000103E53
:10306000000000000000103C000000000000103ACA
:10307000182D4454FB21F93D3326A611460B113C73
:1030800000000054FB21F93D10B52DED040B2DED92
:10309000088B82B0B0EE419AF0EE619A0B9820F066
:1030A00000449FED4BABB4F1795F11DA9DED0A0B53
:1030B00051EC100B00F018FF002801BFB0EE4A0AD7
:1030C000F0EE6A0A02B0BDEC088B04BF04B010BD7C
:1030D0009DED0A0B53EC102B51EC100B00F05EFF32
:1030E00041EC180B3C480621B0EE480AF0EE680AA5
:1030F000784400F081F853EC182B51EC100B00F0E1
:103100004DFF9DED0A0B41EC1B0B53EC192B51ECC1
:10311000100B00F043FF41EC190B53EC1B2B51EC4F
:10312000180B00F03BFF53EC192B01F041F89FED19
:103130002C0B41EC190B53EC102B51EC180B00F03D
:103140002DFF41EC100B2848844210DA53EC192B68
:1031500051EC100B01F02CF853EC1A2B01F01CF879
:1031600041EC100B02B0BDEC088B04B010BD1F4841
:10317000A042BCBF9FED1E1B8DED001B06DBA4F51E
:1031800000100190002000909DED001B51EC100BF1
:1031900053EC112B01F00CF89DED000B41EC180BDA
:1031A00053EC102B51EC1A0B01F002F841EC1A0B06
:1031B00053EC192B51EC180B00F0FAFF53EC1A2BBF
:1031C00000F0EAFF41EC100BCCE70000000000002B
:1031D000000000000000F03F9C1300000000000011
:1031E000000000000000E03F3333D33F0000E93F20
:1031F000000000000000D23F70B504462DED028BA8
:103200004D1E00EBC500B0EE408AF0EE608A90EDF6
:10321000000B35F0060017D053EC182B51EC100BB7
:1032200000F0BCFE41EC100B6D1E04EBC50090EDF0
:10323000001B51EC100B53EC112B00F055FC41EC32
:10324000100B35F00600E7D1022D36D0042D1CD02E
:10325000062D1CBFBDEC028B70BD53EC182B51EC3E
:10326000100B00F09BFE94ED0A1B53EC112B00F0A9
:103270003BFC53EC182B00F091FE94ED081B53EC33
:10328000112B00F031FC41EC100B53EC182B51ECDE
:10329000100B00F083FE94ED061B53EC112B00F095
:1032A00023FC53EC182B00F079FE94ED040B53EC47
:1032B000102B00F019FC41EC100B53EC182B51ECC7
:1032C000100B00F06BFE94ED021B53EC112B00F081
:1032D0000BFC53EC182B00F061FE94ED001B53EC3B
:1032E000112B00F001FCBDEC028B41EC100B70BD0A
:1032F00031B504462DED040B2DED0A8BB0EE41BA2D
:10330000F0EE61BA0B989DED0A0B20F00040B0F191
:10331000795F0DDA51EC100BFFF70DFC042808BFA4
:1033200000F09AF89DED0A0BBDEC0A8B05B030BD9C
:1033300053EC102B51EC100B00F030FE41EC180B4D
:103340009DED0A0B53EC182B51EC100B00F026FEF0
:1033500041EC190B2C48B0EE480AF0EE680A052142
:103360007844FFF749FF9FED2ACBB0EE40AAF0EE7C
:1033700060AA9CB353EC1C2B51EC190B00F00EFE11
:1033800041EC1C0B53EC1A2B51EC190B00F006FE10
:103390009FED210B41EC190B53EC102B51EC1B0B47
:1033A00000F0FCFD53EC192B00F002FF53EC182B3E
:1033B00000F0F4FD53EC1B2B00F0FAFE53EC1C2B39
:1033C00000F0F6FE9DED0A1B53EC112B00F0E4FE1D
:1033D000BDEC0A8B05B041EC100B30BDFFE753ECA0
:1033E0001A2B51EC180B00F0D9FD53EC1C2B00F0FC
:1033F0007BFB53EC192B00F0D1FD9DED0A1B53EC28
:10340000112B00F071FBE3E7241200000000000024
:10341000495555555555C5BF000000000000E03F17
:1034200010B553EC102B51EC100B00F05DFB41EC90
:10343000100B10BD000000009FED050B10B553EC04
:10344000102B51EC100B00F0F7FB41EC100B10BDF2
:1034500000000000000000009FED050B10B553ECCC
:10346000102B51EC100B00F099FD41EC100B10BD2E
:1034700000000000000000107CB5044600F080F958
:103480006846FEF76DF90098E060BDF80400208200
:10349000A18980B2401A86B200F07CF96846FEF736
:1034A0005FF90098E060BDF804002082A18980B235
:1034B000401A85B200F076F96846FEF751F9009897
:1034C000E060BDF804002082A18980B2401A80B279
:1034D000AE420DD286420BD200F052F96846FEF79A
:1034E0003FF90098E060BDF80400208200207CBD18
:1034F000B5420DD285420BD200F04CF96846FEF77A
:103500002FF90098E060BDF80400208201207CBD06
:10351000A842FCD2B042FAD200F044F96846FEF765
:103520001FF90098E060BDF80400208202207CBDF5
:1035300010B52DED028B21B1012905D0022907D14B
:1035400005E04FF47A7403E042F2107400E0104C8E
:1035500000F010FD41EC180B204600F00BFD9FED34
:103560000D1B53EC112B00F019FD53EC182B00F040
:1035700015FD41EC100B53EC102B9FED080B51EC9B
:10358000100B00F059FBBDEC028B41EC100B10BD91
:10359000A0860100A7E8482EFF2119400000000086
:1035A0000000F03F82B0CDE9000121F00040019021
:1035B0009DED000B02B051EC100B70474FF47A7385
:1035C00022B1012A04D0022A06D104E0194603E000
:1035D00042F2107100E00D49DFED0D1AB0EE401A15
:1035E000B0FBF3F081EE210A00EE900A01EE101A12
:1035F000F8EE600AB8EE411A61EE600A80EE801AB9
:10360000BCEEC10A10EE100A70470000A08601004F
:1036100000007A4410B504462DED028B21B101293A
:1036200005D0022907D105E04FF47A7003E042F299
:10363000107000E00B4800F09DFC9FED0B1B53EC5D
:10364000112B00F0ABFC41EC180B204600F092FC73
:1036500053EC182B00F0F0FABDEC028B41EC100B90
:1036600010BD0000A0860100A7E8482EFF211940E8
:1036700088B0FEF7E3FCFFF71DFAFDF7C9FFFFF77F
:10368000BFF8FEF7BFF8FEF7F5FFFEF7EBF8384896
:10369000016841F480610160016841F4805101607A
:1036A000FFF788F80D2133A0FFF7EAF900248DF821
:1036B0000E408DF804408DF80D4006A8FEF750F836
:1036C00006980490BDF81C00ADF81400FEF73EF912
:1036D0004FF47A752846FEF793FBFFF76BF801A8C5
:1036E000FFF7CAFEC1B28DF80D109DF80E008142A1
:1036F00001D08DF80E109DF80E20BDF81410BDF805
:103700001000FFF75BFF9DF804100290D9B101296A
:1037100022D005980DF1040C022900909CE80F00BE
:1037200023D000F09DF800BFFEF788F80028D1D024
:103730009DF80400401CC0B28DF804000328C9D9CC
:103740008DF80440C6E705980DF1040C00909CE844
:103750000F0000F029F9E7E705980DF1040C00903F
:103760009CE80F0000F0D0F8DEE700F025F8DBE77A
:10377000000002404C6F6164696E672E2E2E0000BF
:1037800003484FF40011816141018161FEF7DEB809
:10379000000002400248202181614101816170479F
:1037A0000000024003484FF4001181614021816113
:1037B000704700000000024030B50D4689B0144645
:1037C00000210F20FFF702F84620FFF74DF90021F6
:1037D0000846FEF7FBFFE1B22846FFF7A9FE4620A8
:1037E00002908DED000B14A2102105A8FCF7C6FD78
:1037F000102105A8FFF744F901210C20FEF7E6FF90
:10380000C4F3074090B1012812D0022812D00CA2B4
:10381000052103A8FCF7B2FD042103A8FFF730F946
:1038200000210846FEF7D2FF09B030BD06A2EFE73F
:1038300007A2EDE708A2EBE7463A202566256300DC
:1038400020202020000000002020316B000000001C
:103850002031306B000000003130306B0000000080
:1038600030B50D4689B0144600210F20FEF7AEFF9B
:103870004620FFF7F9F800210846FEF7A7FFE1B25E
:103880002846FFF7C7FE462002908DED000B14A2DC
:10389000102105A8FCF772FD102105A8FFF7F0F82C
:1038A00001210C20FEF792FFC4F3074090B10128DC
:1038B00012D0022812D00CA2052103A8FCF75EFD4D
:1038C000042103A8FFF7DCF800210846FEF77EFF7D
:1038D00009B030BD06A2EFE707A2EDE708A2EBE7CB
:1038E000463A2025662563002020202000000000A5
:1038F0002020316B000000002031306B0000000000
:103900003130306B0000000030B50C4687B01546F2
:1039100000210F20FEF75AFFDE20FFF7A5F8002157
:103920000846FEF753FFDE200090234614A2102124
:1039300003A8FCF723FD102103A8FFF7A1F801213C
:103940000C20FEF743FFC5F3074090B1012812D0C9
:10395000022812D00CA2052101A8FCF70FFD0421BA
:1039600001A8FFF78DF800210846FEF72FFF07B0EA
:1039700030BD07A2EFE708A2EDE709A2EBE70000E0
:10398000523A2025642563002020202000000000FA
:103990002020316B000000002031306B000000005F
:1039A0003130306B00000000F0B58BB00D4616468C
:1039B0001C4600210F20109FFEF708FF5420FFF740
:1039C00053F800210846FEF701FF200C0090A3B237
:1039D00014A20F2101A8FCF7D1FCBBB214A2102144
:1039E00005A80095FCF7CAFC0F2101A8FFF748F8CD
:1039F00001210020FEF7EAFE102105A8FFF740F89C
:103A000001210F20FEF7E2FEC6F307430BA20221BD
:103A100009A8FCF7B3FC9DF82400FFF725F80BB0CC
:103A2000F0BD0000413A256420423A2564000000C0
:103A3000433A256420493A256400000025640000CB
:103A400010B500290AD00878002807D00548784426
:103A5000FDF754F9002801D0002010BD0248784439
:103A600010BD0000160C00000E0C000081F000419B
:103A7000704780F00040704721F00041704720F00F
:103A80000040704721F00042A2F16052B2F5801F61
:103A900001F0004328BFD2F17F6C0BD95FEA001C14
:103AA00043EAC20242EB507018BF704728BF20F0B3
:103AB00001007047B2F5801FBCBF184670474FEA3F
:103AC000410C1CF5001F02D2084600F0D1BC70B5B5
:103AD00000F00EFB00000089FFF7F6BF4FF000403A
:103AE000A0F580007047000010B591EA030F48BFB1
:103AF00083F0004300F16483841A71EB030C05D258
:103B0000121943EB0C03001B61EB0C01DFF824E1FD
:103B10004FEA1154A4EB135C1EEA430F18BF9EEA50
:103B2000445F73D023EA0E03DCF1200E21EA045136
:103B300043F4801332D322FA0CFE10EB0E0023FA6A
:103B40000CFE41EB0E01CCF1200E03FA0EFE10EB41
:103B50000E0051F10001B1F5801FCCF1200E32D2E0
:103B600001EB045112FA0EF2BDE8104058BF704745
:103B7000401C38BF5FEA420218BF7047002814BFDC
:103B800020F0010041F100014FEA410313F5001F4D
:103B900038BF7047A1F1C04100F0F8BA012A43EBE9
:103BA0000302ACF1200CDCF11F0E32BF4FF0000E0F
:103BB00023FA0CF310EB030041EB0451B4EB115F5B
:103BC000D0D0A1EB045101F5801149085FEA300023
:103BD00001EB04510ED350F1000038BF12FA0EFE73
:103BE00008D1BDE81040C9E7401C38BF5FEA420277
:103BF000CAD1C3E7BDE810404FEA410313F5001FE7
:103C000038BF7047A1F1C04100F0C0BA9EEA445FDE
:103C100008D011EA5E0FBDE8104004BF01F000417A
:103C200000207047BDE8104070B500F061FA00BF99
:103C300064FBBE3E0000E0FF2DE9C04130B4DFF878
:103C4000A0C23CEA111418BF3CEA131400F0EC8047
:103C500081EA03051CEA111444EAD57418BF1CEA72
:103C6000131500F0C780A4EB05044FF0004545EAAA
:103C7000C12145EAC32341EA505143EA525304F1BA
:103C80007F74994204F500344FEAC0204FEAC22203
:103C900008BF904200F09C804FEA13650FF2401677
:103CA000765D4FEA134506FB05F7C7F1807706FB03
:103CB00007F74FEAD737A7FB03687642C8F5803885
:103CC000A7FB06CE38BFA8F1010807FB08E64FF0B6
:103CD000000EA6FB028CE6FB03CEDCF1000CCEF15D
:103CE000004E38BFAEF1010EA6FB0C584FF0000796
:103CF0004FF00005E6FB0E87A1FB08C6A0FB07CE30
:103D000016EB0E0645F10005E1FB076515F1E04EE7
:103D10007EBFA4F580345FEA46066D4116F1800748
:103D200045F100054FEA17274FEA066647EA05679F
:103D3000A6F1DE46B6F1805F4FEA15251FD9384659
:103D400024F0010C05EBC471BCF1FE6F01EB0C110A
:103D500002D8F0BCBDE8008124425CBF01F5801EA2
:103D60009EEAC47F02D4F0BCBDE80081244238D46E
:103D7000F0BCA1F1C041BDE8004100F007BA4FEA34
:103D8000D22242EA43524FEAD323A7FB02864FEAEC
:103D9000D02040EA415007FB03661EEA0E0F4FEAAF
:103DA000D12105FB026658BFA6EB0056B6EB0056C4
:103DB0004FEA520E4EEAC37E18EB0E0E56EB530E30
:103DC000BDD518EB02085E417F1C55F10005B6E732
:103DD0004FF480154FF000074FF000064FF0000839
:103DE000ADE7F0BC4FF0000001F1C04101F000412F
:103DF000BDE8008111EA0C1F0CEA131500D00CE09D
:103E000013EA0C1F00F025804FF00000F0BC81EA9F
:103E1000030101F00041BDE80081F0BCBDE80041B4
:103E200081EA030100F0B2B9F0BCBDE8004170B511
:103E300000F05EF9097EFC3E00F007B881EA03015C
:103E40004FF0000001F00041704781EA030100F0EB
:103E50009DB9F0BCBDE800414FF00000214970471A
:103E6000FFFDFBF9F7F5F4F2F0EEEDEBE9E8E6E43F
:103E7000E3E1E0DEDDDBDAD8D7D5D4D3D1D0CFCDC6
:103E8000CCCBCAC8C7C6C5C4C2C1C0BFBEBDBCBBFF
:103E9000BAB9B8B7B6B5B4B3B2B1B0AFAEADACABFA
:103EA000AAA9A8A8A7A6A5A4A3A3A2A1A09F9F9ED4
:103EB0009D9C9C9B9A999998979796959594939386
:103EC000929191908F8F8E8E8D8C8C8B8B8A89891D
:103ED00088888787868585848483838282818180A0
:103EE0000000FF070000F87F4FEA41034FEA5353F9
:103EF000A3F58063D3F11E03C8BFD3F1210C0CDD01
:103F00004FF0004242EAC12242EA505232FA03FC28
:103F10008CEAE17CACEBE1707047102BC4BF002051
:103F2000704703F5787CBCF1FF3F04D06FF000428E
:103F300082EA2100704770B500F0DAF849922480D7
:103F400000207047F2E710F0004248BF4042B0FA4C
:103F500080F310FA03F10AD0C3F11D0303F5806367
:103F60004FEA415002EB035202EBD12170474FF070
:103F700000007047B0FA80F310FA03F10AD0C3F1E1
:103F80001D0303F580634FEA41504FEA035202EBF1
:103F9000D12170474FF0000070470000DFF848C1A2
:103FA00070B51CEA111E1EBF1CEA13159EEA0C0F09
:103FB00095EA0C0F00F06F8081EA030423EA4C13AA
:103FC0004EEAD47E21EA4C1141F4801143F480136F
:103FD000AE44A1FB024CA0FB0365AEF17F7E361917
:103FE00055EB0C05A1FB034C4CF10003A0FB021C9C
:103FF00016EB0C06654153F10003094218BF46F069
:10400000010613F4007F0BD14FEA03314FEA05306C
:10401000340341EA155140EA16506FF003020AE0FA
:104020004FEAC3214FEAC520F40241EA555140EA64
:1040300056506FF0020202EB2E4201EB025585EA68
:10404000CE710AD05FEA440C18BF24F0004450F14E
:10405000000041F1000120EAD47040F2FE7C62458C
:1040600000D270BDA84214BF4FF080444FF04044CE
:10407000002E08BF0024BEF1806FA8BFA1F1C0418F
:10408000BDE8704080F282804FF0000001F1C04135
:1040900001F0004170479EEA0C0F0CEA131518BF9F
:1040A00095EA0C0F06D04FF0000081EA030E0EF0E7
:1040B000004170BD00F01CF88900013E00F007B817
:1040C00000F009B84FEA430C5FEA5C5C08D081EA73
:1040D000030100F05BB84FEA410C5FEA5C5CF6D18B
:1040E0004FF00000014970470000FF070000F87F13
:1040F0000EF1020E2EF0030E5EF8046B364205D46C
:10410000012A43EB030515F5001F12D8012841EBE6
:10411000010C1CF5001F0CD80ED14FEAD17C15F50F
:10412000001F0CEB4C0C0CF1020C08BF4CEBD37CC9
:1041300004E04FF0080C01E04FEAD37C0CEB4C0597
:1041400026FA05F606F00706B6F1040C06D20EEBC9
:10415000860CBDE870404CF0010C6047DFE80CF0C5
:10416000090B02024FF000414FF00000A1F50021C1
:1041700070BD19461046012851EB010418BFD4F553
:10418000001484BF002001F0004170BD0808A0F5B4
:1041900000114FEA3101704791EA030F10B581F029
:1041A00000413FF5A9AC83F0004300F009B80000DE
:1041B00010B591EA030F48BF83F000433FF59CAC74
:1041C000841A71EB030C07D212198CF0004C43EBEC
:1041D0000C03001B61EB0C01DFF8A4E14FEA115462
:1041E000A4EB135C1EEA430F18BF9EEA445F00F085
:1041F000B08023EA6E03524221EA0451C3EB6E03FE
:1042000038BF5B1EDCF1200E25D322FA0CFE10EB2A
:104210000E0043FA0CFE41EB0E01CCF1200E03FA26
:104220000EFE10EB0E0051F10001CCF1200E29D44E
:1042300012FA0EF201EB0451BDE8104058BF70476E
:10424000401C1CBFB2F1004F704700280CBF491C36
:1042500020F00100704712EB020E43EB030218BF7F
:104260004FF0010E4EEA4202ACF1200CDCF11E0EC2
:1042700054D943FA0CFE10EB0E0051F1FF31CCF192
:104280001E0ED5D50EF1010E12FA0EFE404141EB85
:10429000010101EB445C5FEA5C5C10D910EBDE705D
:1042A00001EB045138BFBEF1004FBDE8104018BF0C
:1042B000704700280CBF491C20F00100704730D225
:1042C0004FEAD42C11F5001124F400641BD0B1FA8C
:1042D00081F20B3AA41AA41ED2F12003914030FAC5
:1042E00003F31943904001EBCC71002C01EB045116
:1042F000BDE81040A8BF704701F1C0414FF0000079
:1043000001F000417047B0FA80F310FA03F100D1D8
:1043100010BDE41A173C4805C90AE4E701EB045153
:1043200010BD491001EB0451BDE810404FEA3000C8
:1043300002E04FF0000170474A0008BF0042F8D089
:10434000B2F5001F28BF704701F000414FF0000098
:1043500070479EEA445F07D011EA5E0FBDE8104047
:1043600004BF002100207047BDE8104070B5FFF782
:10437000BFFE00BF40DFF63E83F0004110467047AD
:104380000000E0FF43004FEAD30C4FEA3C0C4340EF
:104390001FBF40070CF1605113F0FE4F70471CF037
:1043A000006F03D100200CF0004170470CF0004377
:1043B00043EA507010B540EACC0000F00EF800BFA0
:1043C000000000924FEA0001FFF7E0BE4FF000410D
:1043D0004FF00000A1F5002170470EF1020E2EF003
:1043E000030E5EF8044B244204D44FEA4102B2F1BA
:1043F0007F4F11D84FEA4003B3F17F4F0CD80ED155
:104400004FEAD07CB2F17F4F0CEB4C0C0CF1020C5C
:1044100008BF4CEBD17C04E04FF0080C01E04FEA00
:10442000D17C0CEB4C0324FA03F404F00704B4F140
:10443000040C06D20EEB840CBDE810404CF0010CCD
:104440006047DFE80CF0070802024FF00040A0F5DB
:10445000800010BD0846420018BFD2F1807288BFAC
:1044600000F0004010BD4FF04070E1EE100A7047C0
:10447000FF2141EAD050C0057047FCF79AB900000F
:104480000000000000000102030406070809000004
:104490004C5555555555A53F7751C1166CC156BF62
:1044A0009015CB19A001FA3EAD529C804F7E92BE72
:1044B000C4B1B4BD9EEE213ED43888BEE9FAA8BD91
:1044C00000004054FB21F93F3163621A61B4D03DD2
:1044D0000000601A61B4D03D7370032E8A19A33BAB
:1044E0000000002E8A19A33BC14920259A837B39FD
:1044F00000000000000000006E83F9A22915444E60
:10450000D15727FCC0DD34F5999562DB4190433CDF
:10451000AB6351FE61C5BBDE3A6E24B7E0D24D42BB
:10452000EA2E49061C92D1091CEB1DFE3EA729B1BB
:10453000F53582E88444BB2E26709CE9417E5FB449
:1045400039D69139F43953838B5F849C3B28F9BD6C
:10455000FF97F81F0F9805DE8B112FEF1F6D0A5A7A
:10456000CF7E366DB709CB27663F464F2DEA5F9E5B
:10457000C7BA27757BF1E5EBF739073DEA92528A16
:10458000B15FFB6B085D8D1FA6F810111111813F03
:10459000D561C119A0012ABF7DFEB157E31DC73EF9
:1045A000EB9C2B8AE6E55ABE7CD5CF5A3AD9E53D3D
:1045B00002400000000000A00000000005400000D4
:1045C000000000C8000000000C4000000000409CFB
:1045D00000000000194000000020BCBE00000000E8
:1045E00034400000BFC91B8E00000004B54000002D
:1045F000504BCFD06607E2CF010000006C410000B5
:104600003E8251AADFEEA73401000000D94200002B
:10461000DCB5A0E23A301F97FFFFFFFFB445000072
:10462000FD25A0C8E9A3C14FFFFFFFFFFF3F00002A
:104630000000008000000000FF3F0000000000803C
:104640000000000080460008000000201400000068
:10465000C401000894460008140000207C0C0000EF
:10466000E00100081C00000043000000F8FFFFFF0D
:104670000C0000000E0000000F0000002E000000E3
:104680000000000001000000100000000000000019
:044690000024F4000E
:040000050800018965
:00000001FF
