:020000040800F2
:100000005007002031020008F9160008F516000814
:10001000F7160008D90900087D1A00080000000042
:10002000000000000000000000000000F5190008BA
:10003000390A000800000000F3190008F719000849
:100040004B0200084B0200084B0200084B0200085C
:100050004B0200084B0200084B0200084B0200084C
:100060004B0200084B0200084B0200084B0200083C
:100070004B0200084B0200084B0200084B0200082C
:100080004B0200084B0200084B0200084B0200081C
:100090004B0200084B0200084B0200084B0200080C
:1000A0004B0200084B0200084B0200084B020008FC
:1000B0004B0200084B0200084B0200084B020008EC
:1000C0004B0200084B0200084B0200084B020008DC
:1000D0004B0200084B0200084B0200084B020008CC
:1000E0004B0200084B0200084B0200084B020008BC
:1000F0004B0200084B0200084B0200084B020008AC
:100100004B0200084B0200084B0200084B0200089B
:100110004B0200084B0200084B0200084B0200088B
:100120004B0200084B0200084B0200084B0200087B
:100130004B0200084B0200084B0200084B0200086B
:100140004B0200084B0200084B0200084B0200085B
:100150004B0200084B0200084B0200084B0200084B
:100160004B0200084B0200084B0200084B0200083B
:100170004B0200084B0200084B0200080000000080
:100180004B0200084B02000800F002F800F041F8B2
:100190000AA090E8000C82448344AAF10107DA45E2
:1001A00001D100F036F8AFF2090EBAE80F0013F0F3
:1001B000010F18BFFB1A43F0010318470C1E000083
:1001C0002C1E0000103A24BF78C878C1FAD8520714
:1001D00024BF30C830C144BF04680C6070470000C1
:1001E0000023002400250026103A28BF78C1FBD840
:1001F000520728BF30C148BF0B607047642900F028
:10020000FD80002070471FB501F0D0FE1FBD10B566
:1002100010BD00F0EBF91146FFF7F5FF01F07CFC93
:1002200000F009FA03B4FFF7F2FF03BC00F00CFA88
:100230000948804709480047FEE7FEE7FEE7FEE77A
:10024000FEE7FEE7FEE7FEE7FEE7FEE704480549B6
:10025000054A064B704700006D1A00088901000826
:1002600050010020500700205003002050030020C0
:1002700053EA020C00F069802DE9F04B4FF00006C4
:10028000002B1FBFB3FA83F503FA05F424FA05F631
:100290005E4012BF1643B2FA82F502FA05F4C5F1C8
:1002A00020051EBF22FA05FC44EA0C04203556EA5C
:1002B000044C4FEA144418BF641C4FF000084FF080
:1002C0000009904271EB030C39D3002919BFB1FA30
:1002D00081F701FA07F6B0FA80F700FA07F6C7F1DE
:1002E00020071EBF20FA07FC46EA0C062037B6FBA3
:1002F000F4FCA7EB0507103F07F01F0BCBF120061E
:100300000CFA0BFB2CFA06F644BFB3460026202F4E
:10031000A4BF5E464FF0000B5BEA060C08BF4FF02F
:10032000010B19EB0B09ABFB027C48EB0608C01B69
:1003300006FB02CC0BFB03CC71EB0C01C1E70B46B7
:10034000024641464846BDE8F08B13B54FF0000029
:100350004FF00001AFF30080BDE81C407047000083
:100360000FB41CB50C0007AA009001D02044401E19
:10037000074B7B4469460190069800F00EF9002C6B
:1003800003D06946002000F01BF91CBC5DF814FB8B
:10039000550200002DE9F0410E460446002020627F
:1003A0002046E168884730B3252805D0D4E90121EB
:1003B0009047206A401CF2E7E16820460027884702
:1003C000050018D0A5F14100192802D820354FF4B6
:1003D00000673246294620462760FFF70FFF40B1ED
:1003E000012804D0F61D26F007060836D8E7361D8A
:1003F000D6E72846DAE7206ABDE8F0812DE9F0412A
:100400000646002410687529314616A510D0AFF3B2
:100410000080002802DA404213A507E031688A070D
:1004200001D512A502E0490704D511A5012401E078
:10043000AFF3008000210A2206F1240709E0B0FB97
:10044000F2FCB0FBF2F302FB1C003030785418468B
:10045000491C0028F3D123462A463046BDE8F04126
:1004600000F03DB8000000002D0000002B0000004F
:10047000200000004FF0000200B513469446964657
:10048000203922BFA0E80C50A0E80C50B1F12001A7
:10049000BFF4F7AF090728BFA0E80C5048BF0CC055
:1004A0005DF804EB890028BF40F8042B08BF7047B3
:1004B00048BF20F8022B11F0804F18BF00F8012B25
:1004C000704770477047704710B500F087F80068B4
:1004D00010BD10B5044600F081F8046010BD2DE990
:1004E000F0470D4699469246044600F124080168FB
:1004F000880604D5E06921F01001216000E00120A8
:10050000A84201DD471B00E00027A1697A1902EB30
:100510000900081AA0612078C00602D42046AFF373
:100520000080002608E0D4E901211AF8060090476F
:10053000206A401C761C20624E45F4DB2078C00601
:100540000AD52046AFF3008006E0D4E9012130202F
:100550009047206A401C2062381EA7F10107F4DC96
:1005600007E0D4E9012118F805009047206A401CF3
:100570002062281EA5F10105F3DC2046AFF30080C0
:100580002078000602D50220BDE8F0870120FBE7B5
:1005900001694A1C02610878704700B58FB0CDE947
:1005A00001310021059105497944CDE90310114637
:1005B0006846FFF7EFFE0FB000BD0000E5FFFFFF4C
:1005C0000A6802F8010B0A607047D1E900239A42D9
:1005D00002D2531C0B601070704700000048704737
:1005E000EC00002000487047EC0000207546FFF743
:1005F000F9FFAE4605006946534620F007008546E0
:1006000018B020B5FFF722FEBDE820404FF00006ED
:100610004FF000074FF000084FF0000B21F00701EA
:10062000AC46ACE8C009ACE8C009ACE8C009ACE82D
:10063000C0098D46704710B50446AFF300802046D0
:10064000BDE81040FFF7EEBD01491820ABBEFEE744
:1006500026000200704700007FB500241048009477
:10066000019402940D490394C0E90014846004616C
:10067000047680F820400B49C0E90A140125C561C1
:10068000C46080F83040456100F081FACDE9004552
:1006900069460348029400F0D1F97FBD0020014073
:1006A000140000200100000F7FB5002410480094C2
:1006B000019402940D490394C0E90014846004611C
:1006C000047680F820400B49C0E90A140125C56171
:1006D000C46080F83040456100F059FA0095CDE9DA
:1006E00001546946024800F0A9F97FBD002101408C
:1006F0005C0000200100000F7FB500241148009429
:10070000019402940E490394C0E9001484600461CA
:10071000047680F820400C49C0E90A140125C5611F
:10072000C46080F83040456100F031FA0220CDE924
:10073000000569460294034800F080F97FBD00007F
:1007400000220140A40000200100000F084808B565
:10075000016841F001010160006800F001000090B3
:10076000FFF77AFFFFF7A0FFBDE80840FFF7C4BF1F
:1007700030380240464910B54A6822F440324A6097
:100780004A6843681A434A6001684A6822F48072E2
:100790004A6001684A68036942EA03224A600168C4
:1007A0004A6822F040724A6001684A6883681A43C6
:1007B0004A6001688A6822F400628A6001688A6877
:1007C000C3681A438A60816A6FF07062D14201681F
:1007D0008A6822F070628A6001688A680CD0836A35
:1007E0001A438A6001688A6822F040528A60016870
:1007F0008A68C36A1A4301E022F040528A600168A5
:100800008A6822F002028A6001688A68037E42EAEE
:1008100043028A6090F82010002901684A680FD0CE
:1008200042F400624A6001684A6822F460424A6009
:1008300001684A68174C436A04EB43331A4301E0EA
:1008400022F400624A600168CA6A22F47002CA6235
:100850000168CA6A838B104C04EB03531A43CA62C3
:1008600001688A6822F400728A6001688A6890F8D8
:10087000303042EA43228A6001688A6822F480624A
:100880008A6001688A68406942EA8020886010BDF9
:100890000023014000E0FFFF0000F0FF2DE9FC5FB6
:1008A00000268346374634460A254FF47A793E4877
:1008B00000F04CFA49463C4800F0F2F93A4800F0A2
:1008C00063F980B240F6E4414843000BADF8000004
:1008D0008046354800F0B8FA4046B04502D9064691
:1008E0000A25E4E76D1EE2D1ADF80060B2460A26A3
:1008F000C8462D48483000F029FA2B484146483078
:1009000000F0CEF92848483000F03EF980B240F6B9
:10091000E4414843050B2448ADF80250483000F04C
:1009200093FABD4202D92F460A26E2E7761EE0D1AD
:10093000ADF802700A2647461B48903000F006FAD0
:1009400019483946903000F0ABF91748903000F064
:100950001BF980B240F6E4414843050B1248ADF85C
:100960000450903000F070FAA54202D92C460A26B5
:10097000E2E7761EE0D1504600F018F8ADF800002E
:10098000BDF8020000F012F8ADF80200204600F0B9
:100990000DF8ADF804000099CBF80010BDF8041074
:1009A000ABF80410BDE8FC9F140000204043094947
:1009B00010B500EBD07001EB600001F0C6F941EC1E
:1009C000100B01F06CF851EC100B01F091F980B2B2
:1009D00010BD000090D00300FEE700000A4800B5FB
:1009E000026887B0002142F01002026000680291A4
:1009F00000F0100005908020CDE900016946034811
:100A000000F052FA07B000BD30380240000002404A
:100A100010B58021064800F03FFB06490A78824263
:100A200001D1012801D0087010BD002010BD0000C8
:100A300000100240000000207047000078B500243C
:100A4000009490F83C20012A19D0012280F83C2023
:100A50000A6807230568092A13D9EE680A3A02EBE7
:100A6000420293409E43EE600B788A680A3B03EB98
:100A700043039A400368DD682A43DA6010E00220ED
:100A800078BD2E6902EB420293409E432E610B78A3
:100A90008A6803EB43039A4003681D692A431A617D
:100AA0004A681F23072A13D205686E6B521E02EB99
:100AB000820293409E436E630B790A885B1E92B25A
:100AC00003EB83039A4003685D6B2A435A6327E074
:100AD00005680D2A12D22E6BD21F02EB82029340C0
:100AE0009E432E630B790A88DB1F92B203EB8303CC
:100AF0009A4003681D6B2A431A6311E0EE6A0D3AAF
:100B000002EB820293409E43EE620B790A880D3B12
:100B100092B203EB83039A400368DD6A2A43DA62E8
:100B2000164B0568144A9D4206D10D68122D03D15B
:100B3000556845F48005556005689D4218D10B68DD
:100B4000102B01D0112B13D1536843F400035360D1
:100B5000096810290CD10A490A4A0968B1FBF2F167
:100B600001EB8101490000E0491E00910029FBD101
:100B700080F83C40002078BD002301400020014067
:100B80001000002040420F000068C06C704770B534
:100B900004004FF0000503D0206C002610B107E0E0
:100BA000012070BD204600F01DF8666484F83C60AA
:100BB000206CC00610D4206C20F4885040F0020055
:100BC00020642046FFF7D6FD6664206C20F002000A
:100BD00040F00100206400E0012584F83C602846D4
:100BE00070BD000070B586B0044614216846FFF75A
:100BF00041FC274A254E256800232549143A032441
:100C00002448B54211D10D6845F480750D6009681E
:100C100001F480710591116841F0010111601168C2
:100C200001F001010591012113E01B4EB54218D1DD
:100C30000D6845F400750D60096801F400710591B7
:100C4000116841F001011160116801F00101059185
:100C50000221CDE900140293694600F025F906B09F
:100C600070BD0E4EB542FAD10D6845F480650D6039
:100C7000096801F480610591116841F0010111607A
:100C8000116801F0010105910421E2E70020014013
:100C9000443802400000024000210140002201408F
:100CA0002DE9F041044600680D4681684FF00007C9
:100CB00049050BD58068C00508D5206C40F02000A0
:100CC000206484F83C700120BDE8F08100F0EAF96E
:100CD000064613E0681C11D025B100F0E3F9801B33
:100CE000A8420BD920680068800707D4206C40F028
:100CF0000400206484F83C700320E5E72068006865
:100D00008007E7D521686FF012000860206C40F47E
:100D1000007020642068816811F0405F13D1217E4B
:100D200089B9C16A11F4700F02D0806840050AD4F5
:100D3000206C20F480702064206CC00403D4206CEC
:100D400040F0010020640020BEE7000018B500213B
:100D5000009190F83C20012A07D0012280F83C2025
:100D600002689368DB0702D011E0022018BD936887
:100D700043F0010393602E4A2E4B1268B2FBF3F24C
:100D800002EB420200E0521E0092002AFBD10268F0
:100D90009368DB0742D0036C40F20164A34343F441
:100DA0008073036453685B0505D5036C23F400531B
:100DB00043F480530364036CDB0404D5436C23F0D9
:100DC0000603436400E0416480F83C101A496FF068
:100DD0002203136049680068CA06184906D0884291
:100DE00024D1816811F0405F13D01FE08842F8D011
:100DF000134A904203D1D1F80423D206F1D0114A0C
:100E0000904213D1D1F8041301F01F011029E8D347
:100E10000CE0816841F08041816007E0016C41F0A5
:100E200010010164416C41F001014164002018BDD2
:100E30001000002040420F0000230140002001402C
:100E4000002101400022014090F83C1001290CD003
:100E5000012180F83C1001688A6822F001028A6052
:100E600001688968C90702D007E002207047016C59
:100E700021F4885141F001010164002180F83C1007
:100E80000846704770B5044600F00CF90546601C32
:100E900002D004480078044400F004F9401BA0424A
:100EA000FAD370BD040000202DE9F84FDFF8BCA193
:100EB0000022012503264FF00F090AF1040BAAF1C5
:100EC000040E00BF0B6805FA02F42340A34270D160
:100ED0000F7907F00307012F01D0022F16D1876881
:100EE0004FEA420806FA08FC27EA0C07D1F80CC0C2
:100EF0000CFA08FC4CEA070CC0F808C04768A74386
:100F00000C79C4F3001494403C4344600C79E443EE
:100F1000A4070AD0C4684FEA420C06FA0CF7BC4397
:100F20008F6807FA0CF72743C7600C7904F00304B5
:100F3000022C12D1D40800EB840CDCF820405707B7
:100F4000FF0E09FA07F824EA0804D1F8108008FA1D
:100F500007F848EA0408CCF8208004684FEA420CFD
:100F600006FA0CF7BC430F7907F0030707FA0CF7F2
:100F7000274307604C6814F4403F70D03C4C27680E
:100F800047F480472760246822F0030704F4804474
:100F90000094384C07EB040CDCF8084897074FEA3C
:100FA000177809FA08F7BC43334FB84202D100273B
:100FB00024E054E0314FB84201D101271EE0304F08
:100FC000B84201D1022719E02E4FB84201D10327C0
:100FD00014E02D4FB84201D104270FE02B4FB84247
:100FE00001D105270AE02A4FB84201D1062705E0C2
:100FF000284FB84201D1072700E0082707FA08F771
:101000002743CCF80878DAF800405746D1F804C0F6
:101010009C435FEACC2C00D51C433C60DBF80040CD
:101020005F46D1F804C09C435FEA8C2C00D51C437A
:101030003C60DEF800407746D1F804C09C435FEA8C
:101040008C3C00D51C433C60084F083F3C68D1F8FD
:1010500004C09C435FEACC3C00D51C433C60521C5E
:10106000102AFFF42FAFBDE8F88F0000083C0140C4
:1010700044380240003001400000024000040240B9
:1010800000080240000C0240001002400014024020
:1010900000180240001C02400069084000D00120F6
:1010A000704700000148806870470000040000207D
:1010B0000248816802781144816070470400002072
:1010C0000B4810B5016841F400710160016841F4FA
:1010D00080610160016841F480710160032000F0CB
:1010E00061F80F2000F006F800F024F8002010BD91
:1010F000003C024070B50D4D04464FF47A712878DB
:10110000B1FBF0F00A490968B1FBF0F000F0DEFA3B
:1011100048B9102C07D200222146501E00F022F8B8
:1011200000206C6070BD012070BD00000400002034
:10113000100000200A4808B5016841F480410160B0
:10114000006800F4804000900548001F016841F0ED
:1011500080510160006800F08050009008BD0000E0
:1011600044380240F0B40E4B1B680C46C3F3022314
:10117000C3F10705042D00D90425191D072901D243
:10118000002300E0DB1E012606FA05F1491E21407E
:1011900099409E40761E16403143F0BC00F06FBC73
:1011A0000CED00E0064900F0070208684FF6FF0367
:1011B000184040EA0220034A1043086070470000CC
:1011C0000CED00E00000FA052DE9F0470E460500A1
:1011D00065D0DFF81481D8F80000F7B200F00700FE
:1011E000B04207D288F80070D8F8000000F007007D
:1011F000B04254D128683D4C810712D5400703D531
:10120000206840F4E05020602878000703D520686B
:1012100040F4604020602068A96820F0F000084396
:1012200020602878C0072DD0304968680839012827
:1012300012D0022813D0032811D009688907002989
:101240002DDA216821F0030101432160FFF72AFF15
:10125000814641F2883A0EE009688903EFE70968A0
:101260008901ECE7FFF71EFFA0EB0901514502D908
:101270000320BDE8F0872068696800F00C00B0EB3F
:10128000810FEFD1D8F80010404601F00701B142BC
:1012900007D90770006800F00700B04201D00120B4
:1012A000E7E72878400705D52068E96820F4E05092
:1012B000084320602878000706D52068296920F4B3
:1012C000604040EAC100206000F018F82168084A38
:1012D000C1F30311515CC840064908600648006824
:1012E000FFF708FF0020C4E7003C02400838024036
:1012F000B61F00081000002008000020154810B597
:10130000006810F00C02144813D01449042A0FD0BE
:10131000082A0ED10F4C241F2268236802F03F02D6
:101320005B0207D52068C0F38810A0FB010106E02E
:10133000084610BD2168C1F38811A1FB00010023FC
:10134000FEF796FF2168C1F30141491C4900B0FB3B
:10135000F1F010BD083802400024F40040787D010F
:101360002DE9F84F04006ED02078DFF84C93C007C9
:10137000A9F104054AD009F104000168C1F3810113
:10138000012908D00068C0F3810002280AD1D9F8E9
:101390000000400206D52868800337D56068002821
:1013A000E1D033E06068B0F5803F10D0B0F5A02FF9
:1013B000286810D020F480302860286820F480202D
:1013C00028606068A8B1FFF76DFE06460DE028684A
:1013D00040F48030F4E740F480202860F7E700BF55
:1013E000FFF760FE801B642873D828688003F7D558
:1013F0000CE0FFF757FE064605E000BFFFF752FE80
:10140000801B6428F0D828688003F7D42078DFF8A0
:10141000AC8280074FF0000A3ED5A748001D016846
:1014200011F00C0F08D00068C0F3810002280BD126
:10143000D9F80000400207D42868800716D5E06874
:10144000012800D112E033E1E068B8B10120C8F80A
:101450000000FFF727FE064605E000BFFFF722FE6B
:10146000801B0228C0D828688007F7D52868216922
:1014700020F0F80040EAC10028600DE0C8F800A0A4
:10148000FFF710FE064604E0FFF70CFE801B022863
:101490001FD828688007F7D42078000722D5864F08
:1014A00087486169703771B101210160FFF7FAFD6A
:1014B000064604E0FFF7F6FD801B022809D83868CD
:1014C0008007F7D50EE0C0F800A0FFF7EBFD064659
:1014D00005E082E0FFF7E6FD801B02287DD8386832
:1014E0008007F7D42078400768D5DFF8CCB1002713
:1014F0000BF13C0BDBF80000C0000BD4DBF8001054
:1015000041F08051CBF80010DBF80000012700F01B
:10151000805000906B4E3068C00510D4306840F4A5
:1015200080703060FFF7BEFD009005E0FFF7BAFD68
:101530000099401A022850D83068C005F6D55E4E92
:10154000A0686C3601280FD00528306810D020F034
:1015500001003060306820F004003060A068B8B14D
:10156000FFF7A0FD00900FE0306840F00100F4E7C5
:1015700040F004003060F7E7FFF794FD0099411A4E
:1015800041F28830814266D830688007F4D50EE099
:10159000FFF788FD009007E0FFF784FD0099411AEE
:1015A00041F28830814256D830688007F4D42FB198
:1015B000DBF8001021F08051CBF80010A069C8B30F
:1015C0003D49091D0968C1F3810102294AD0022859
:1015D000504607D0C8F8600000E03CE0FFF762FD2D
:1015E00004463BE04746C8F86000FFF75BFD06464F
:1015F00005E000BFFFF756FD801B02282BD82868A6
:101600008001F7D4D4E907010843A16A2E4A4908AA
:1016100002EB0141626A41EA8211084394F82C10FE
:1016200040EA0161C9F8001001203866FFF73AFD71
:10163000044606E03EE000BFFFF734FD001B022831
:1016400009D828688001F7D534E000BFFFF72AFDEC
:10165000001B022802D90320BDE8F88F286880010A
:10166000F4D427E00128F7D0D9F80000E26900F4AB
:10167000800191421CD1226A00F03F01914217D1B2
:1016800047F6C071626A0140B1EB821F10D1A26AB5
:101690004FF0FF3300F4403103EB5202B1EB024F45
:1016A00006D194F82C1000F07060B0EB016F01D0FF
:1016B0000120D1E70020CFE7043802400000474274
:1016C000800E4742007000400000FFFF10B5401E32
:1016D000B0F1807F01D3012010BD4FF0E0246061A4
:1016E0000F21601700F0CBF90020A06107202061D6
:1016F000002010BDFEE7FEE7FEE7000000B500BFDA
:1017000000F09AF80028FBD1012108465DF804EBAF
:1017100000F020B930B50C464FEA000500F08CF817
:101720000028FBD14CB1012C0CD1E8B240F0C00133
:10173000BDE83040012000F00DB905F03F0040F059
:101740008001F5E730BD0000F0B53748016841F091
:1017500001010160016841F002010160016841F08E
:1017600008010160314C0F20214600F0D9F8304DBE
:101770000020294600F0D4F82946012000F0D0F8D6
:101780002946022000F0CCF84FF40040A061284C1C
:101790004FF4E02018342060264E042531462846B8
:1017A00000F0BEF86D1C082DF8DB00BF00F044F817
:1017B0000028FBD11F4A1432106820F0FF00401CA3
:1017C000106042F21076304600F07AF80425256069
:1017D000304600F075F82F042760106820F0FF00F5
:1017E00028301060304600F06BF82560304600F07D
:1017F00067F8276000F020F80028FBD1282101209D
:1018000000F0A8F800F018F80028FBD10C21012006
:1018100000F0A0F800F010F80028FBD1BDE8F0407F
:101820000621012000F096B8303802400000024046
:1018300000040240000C0240F0B51F4D04240022B9
:101840002946204600F05EF8641C082CF7DB3220A5
:1018500000F036F8194C4FF48030206002202060F0
:10186000322000F02DF804222260322000F028F807
:10187000114810300068C6B2322000F021F84FF451
:1018800080272760322000F01BF82260322000F011
:1018900017F8276004272946384600F041F87F1CD6
:1018A000082FF8DB4FF400302060322000F008F8F9
:1018B00006F08000F0BD0000000C02401804024059
:1018C0000E4908B591ED000A9FED0D1A00EBC0001E
:1018D000F8EE400AC0F39B0080EE810A00EE900A09
:1018E000F8EE600A20EE800ABCEEC00A8DED000A18
:1018F0000098411E0091FBD208BD0000100000209E
:101900000024744B10B54300032098400C68C0437A
:1019100004400C60CC689A4004401443CC6010BD75
:1019200070B545000322AA400B68D243012413403E
:1019300004FA05F633430B604B688440A3434B60C5
:10194000886802231040AB4018438860C868104084
:10195000C86070BDF0B5144A032822D001281FD1F9
:1019600000041060114C206801F0F00320F0F0003A
:101970002568184361F3071520603220FFF7A0FFA8
:10198000042616603220FFF79BFF3704176025609E
:101990003220FFF795FF16603220FFF791FF1760A6
:1019A000F0BD0120DDE7000018040240140C0240E5
:1019B00010B50446FFF740FF0028FBD12146BDE8E3
:1019C00010400320FFF7C6BF30B50D46044608E0BF
:1019D000FFF732FF0028FBD114F8011B0320FFF7AB
:1019E000B9FF2078002803D0281EA5F10105EFDCFF
:1019F00030BD70477047FFF75BBB000010B592B079
:101A000030216846FEF736FD14210CA8FEF732FDA2
:101A100014480024016841F080510160006800F022
:101A2000805011901048016841F4804101600068C5
:101A3000069400F480401190022000900120039051
:101A4000102004906846FFF78BFC0F20CDE90C04B2
:101A50000E940F9400210CA81094FFF7B5FB12B060
:101A600010BD00004038024000700040024801688C
:101A700041F470010160704788ED00E0FEE709075E
:101A8000090E002804DB00F1E02080F80014704704
:101A900000F00F0000F1E02080F8141D704700B541
:101AA0002DED048BB0EE409AF0EE609A83B051ECCD
:101AB000190B00F0AFF941EC180B18EE100A18EEF4
:101AC000901A8DED008B002818BF0120084320F0EC
:101AD0000040C0F17F6000F1E040C00F14D019EE6B
:101AE000101A19EE900A8DED009B002918BF0121F4
:101AF000084320F00040C0F17F6000F1E040C00FDB
:101B000004BF0120FEF7E5FCB0EE480A03B0F0EE9A
:101B1000680ABDEC048B00BD88B0FFF7D1FAFFF76F
:101B20006DFFFEF713FEFFF70FFEFEF757FF394874
:101B3000016841F480710160016841F480610160D5
:101B4000016841F480510160016841F48041016005
:101B5000FFF7D4FD0D2130A0FFF736FF00258DF8EB
:101B600000508DF8035003A8FEF798FE03980190EB
:101B7000BDF81000ADF808004FF47A763046FFF754
:101B800081F9FFF7BBFD9DE8070000F07BF89DF8A9
:101B900003408DF80240FEF73BFF38B1641CE0B211
:101BA0008DF80300022801D98DF803509DF8030039
:101BB00020B1012805D0022808D105E000F03AF84C
:101BC00004E000F045F801E000F050F801210F209A
:101BD000FFF7A0FD9DF8034012A22346022104A8AE
:101BE000FEF7BEFB9DF81000FFF7E2FE9DF8020035
:101BF000A04201D0FFF782FD0A210BA0FFF7E4FE0F
:101C000005A8FEF74BFE05980190BDF81800ADF849
:101C10000800B3E7000002404C6F6164696E672EF4
:101C20002E2E00002564000057616974696E672ECE
:101C30002E2E000005484FF4801181610101816161
:101C40004101816181018161704700000000024013
:101C500005484FF48011816101018161402181615A
:101C6000802181617047000000000240044810217B
:101C70008161202181614101816181018161704720
:101C80000000024030B50C4689B0154600210F20F7
:101C9000FFF740FD5420FFF78BFE00210846FFF7B9
:101CA00039FD200C0090A3B20CA20F2101A8FEF771
:101CB00057FBABB20CA2102105A8FEF751FB0F2178
:101CC00001A8FFF781FE01210020FFF723FD10216D
:101CD00005A8FFF779FE09B030BD0000413A256440
:101CE0006D20423A25646D00433A25646D00000082
:101CF0004FEA1153A3F58063D3F11E03A8BFD3F1BC
:101D0000200C08DB4FF0004242EAC12252EA505256
:101D100032FA03F0704709420BD4102BC4BF0020E5
:101D2000704703F5787CBCF1FF3F05D04FF0FF30E2
:101D300070474FF00000704770B500F01DF800BF0D
:101D40004992248000207047F0E710F0004248BF1D
:101D50004042B0FA80F310FA03F10AD0C3F11D0338
:101D600003F580634FEA415002EB035202EBD121AD
:101D700070474FF0000070470EF1020E2EF0030E78
:101D80005EF8046B364205D4012A43EB030515F5D2
:101D9000001F12D8012841EB010C1CF5001F0CD8C4
:101DA0000ED14FEAD17C15F5001F0CEB4C0C0CF159
:101DB000020C08BF4CEBD37C04E04FF0080C01E0B0
:101DC0004FEAD37C0CEB4C0526FA05F606F0070625
:101DD000B6F1040C06D20EEB860CBDE870404CF058
:101DE000010C6047DFE80CF0090B02024FF00041E4
:101DF0004FF00000A1F5002170BD194610460128E2
:101E000051EB010418BFD4F5001484BF002001F089
:101E1000004170BD2DE9F04101F5801CBCF5001FAB
:101E2000C0F2A9804FEA115C21EA0C510CF1FD0CC3
:101E300041F480115FEA5C0C0CF5C07C01D34000DA
:101E4000494130A4890241EA905187028E0E0A0C62
:101E5000A45D04FB04F602FB06F6C6F14046A4FBB3
:101E60000662F60D46EA422606FB06F4A4FB0123B1
:101E70005242C3F1404338BF5B1EA6FB024200241E
:101E8000E6FB0324D20B42EA4446A6FB0623A1FB51
:101E900002E2A3FB07E4E3FB61426442C2F1404E6D
:101EA00038BFAEF1010EA6FB04234FF00002E6FBA3
:101EB0000E32A2FB03463400E2FB6264A1FB06E69D
:101EC000A4FB07E8E4FB61687642C8F1405838BFDC
:101ED000A8F10108A2FB06E4A3FB08E5E2FB6854B5
:101EE000A1FB05E6A7FB04E8E1FB648618F12005E9
:101EF00056F10006A809A8F11B08B10908F03F082F
:101F0000B8F10A0F40EA86601CD901EB0C51BDE81C
:101F1000F08100BFFCF5EEE8E2DDD8D3CFCBC7C33C
:101F2000C0BDB9B6B4B1AEACA9A7A5A3A19F9D9BF6
:101F30009A9896959392908F8D8C8B8988878685B9
:101F400084838281A0FB006800FB01F208EB420859
:101F5000B8EB872807D5341858EB0104D5D5401CB9
:101F600051F10001D1E7341A78EB0104CDD4401EC1
:101F700071F10001C9E75FEA4C0C5FEA9C5C0DD18E
:101F800005D34FF0000001F00041BDE8F081BDE84D
:101F9000F04170B5FFF7F0FE6DDBFFBEBDE8F0412C
:101FA0004FF00000004970470000F87F4FF040708C
:101FB000E1EE100A7047000000000000000001027E
:101FC0000304060708090000E81F000800000020BD
:101FD00014000000C4010008FC1F000814000020C9
:101FE0003C070000E00100080000000001000000C4
:0C1FF00010000000000000000024F400BD
:040000050800018965
:00000001FF
