:020000040800F2
:10000000900C002031020008912500081D180008FE
:100010008D250008DD070008B52500080000000058
:10002000000000000000000000000000992500080A
:100030005D09000800000000952500089D250008C6
:100040004B0200084B0200084B0200084B0200085C
:100050004B0200084B0200084B0200084B0200084C
:100060004B0200084B0200084B0200084B0200083C
:100070004B0200084B0200084B0200084B0200082C
:100080004B0200084B0200084B0200084B0200081C
:100090004B0200084B0200084B0200084B0200080C
:1000A0004B0200084B0200084B0200084B020008FC
:1000B0004B0200084B0200084B0200084B020008EC
:1000C0004B0200084B0200084B0200084B020008DC
:1000D0004B0200084B0200084B0200084B020008CC
:1000E0004B0200084B0200084B0200084B020008BC
:1000F0004B0200084B0200084B0200084B020008AC
:100100004B0200084B0200084B0200084B0200089B
:100110004B0200084B0200084B0200084B0200088B
:100120004B0200084B0200084B0200084B0200087B
:100130004B0200084B0200084B0200084B0200086B
:100140004B0200084B0200084B0200084B0200085B
:100150004B0200084B0200084B0200084B0200084B
:100160004B0200084B0200084B0200084B0200083B
:100170004B0200084B0200084B0200080000000080
:100180004B0200084B02000800F002F800F041F8B2
:100190000AA090E8000C82448344AAF10107DA45E2
:1001A00001D100F036F8AFF2090EBAE80F0013F0F3
:1001B000010F18BFFB1A43F001031847CC390000A8
:1001C000EC390000103A24BF78C878C1FAD8520739
:1001D00024BF30C830C144BF04680C6070470000C1
:1001E0000023002400250026103A28BF78C1FBD840
:1001F000520728BF30C148BF0B607047642900F028
:100200000381002070471FB503F005FC1FBD10B52A
:1002100010BD00F0EBF91146FFF7F5FF02F0CCF945
:1002200000F009FA03B4FFF7F2FF03BC00F00CFA88
:100230000948804709480047FEE7FEE7FEE7FEE77A
:10024000FEE7FEE7FEE7FEE7FEE7FEE704480549B6
:10025000054A064B70470000A125000889010008E7
:1002600090060020900C00209008002090080020AC
:1002700053EA020C00F069802DE9F04B4FF00006C4
:10028000002B1FBFB3FA83F503FA05F424FA05F631
:100290005E4012BF1643B2FA82F502FA05F4C5F1C8
:1002A00020051EBF22FA05FC44EA0C04203556EA5C
:1002B000044C4FEA144418BF641C4FF000084FF080
:1002C0000009904271EB030C39D3002919BFB1FA30
:1002D00081F701FA07F6B0FA80F700FA07F6C7F1DE
:1002E00020071EBF20FA07FC46EA0C062037B6FBA3
:1002F000F4FCA7EB0507103F07F01F0BCBF120061E
:100300002CFA06F60CFA0BFB44BFB3460026202F4E
:10031000A4BF5E464FF0000B5BEA060C08BF4FF02F
:10032000010B19EB0B0948EB0608ABFB027C06FB43
:1003300002CC0BFB03CCC01B71EB0C01C1E70B46DD
:10034000024641464846BDE8F08B13B5084318BF46
:100350004FF0FF300146AFF30080BDE81C4070470E
:100360000FB41CB50C0007AA009007D04142A1426F
:1003700002D32044401E01E04FF0FF30074B7B4486
:1003800069460190069800F00EF90020002C01D07B
:10039000009908701CBC5DF814FB00004B020000C3
:1003A0002DE9F0410E460446002020622046E16817
:1003B000884730B3252805D0D4E901219047206A29
:1003C000401CF2E7E168204600278847050018D066
:1003D000A5F14100192802D820354FF400673246B4
:1003E000294620462760FFF709FF40B1012804D0C5
:1003F000F61D26F007060836D8E7361DD6E728464C
:10040000DAE7206ABDE8F0812DE9F04106460024D4
:1004100010687529314616A510D0AFF3008000286A
:1004200002DA404213A507E031688A0701D512A518
:1004300002E0490704D511A5012401E0AFF30080D3
:1004400000210A2206F1240709E0B0FBF2FCB0FB10
:10045000F2F302FB1C00303078541846491C002887
:10046000F3D123462A463046BDE8F04100F03DB8BE
:10047000000000002D0000002B0000002000000004
:100480004FF0000200B5134694469646203922BF2D
:10049000A0E80C50A0E80C50B1F12001BFF4F7AF78
:1004A000090728BFA0E80C5048BF0CC05DF804EB5A
:1004B000890028BF40F8042B08BF704748BF20F8C8
:1004C000022B11F0804F18BF00F8012B70477047C6
:1004D0007047704710B500F081F8006810BD10B586
:1004E000044600F07BF8046010BD2DE9F0470D468E
:1004F00099469246044600F124080168880604D50E
:10050000E06921F01001216000E00120A84201DD36
:10051000471B00E00027A1697A1902EB0900081ABD
:10052000A0612078C00602D42046AFF300800026E8
:1005300008E0D4E901211AF806009047206A401C1F
:10054000761C20624E45F4DB2078C0060AD5204692
:10055000AFF3008006E0D4E9012130209047206A03
:10056000401C2062381EA7F10107F4DC07E0D4E943
:10057000012118F805009047206A401C2062281EBF
:10058000A5F10105F3DC2046AFF3008020780006DA
:1005900002D50220BDE8F0870120FBE701694A1C73
:1005A00002610878704700B58FB0CDE901310021B4
:1005B000059105497944CDE9031011466846FFF7D6
:1005C000EFFE0FB000BD0000E5FFFFFFD1E9002303
:1005D0009A4202D2531C0B6010707047004870475B
:1005E0001000002000487047100000207546FFF7FB
:1005F000F9FFAE4605006946534620F007008546E0
:1006000018B020B5FFF722FEBDE820404FF00006ED
:100610004FF000074FF000084FF0000BAC46ACE87D
:10062000C009ACE8C009ACE8C009ACE8C00921F0D9
:1006300007018D46704710B50446AFF30080204691
:10064000BDE81040FFF7EEBD01491820ABBEFEE744
:1006500026000200704700002DE9F04184B000251B
:1006600043F630000095C4F20200016840F27004C5
:1006700041F0010101600068C2F2000400F00100D5
:100680000090009842F2000740F20108C4F201070E
:10069000C0F60078012620460395257684F8205080
:1006A000C4E90A85E66184F83050C4E90075C4E9FC
:1006B0000255C4E9045600F0FBF969462046CDE92D
:1006C0000056029500F04CF940F2B80407F580702E
:1006D000C2F20004C4E9000520460395257684F89B
:1006E0002050C4E90A85E66184F83050C4E9025517
:1006F000C4E9045600F0DCF969462046CDE90066FD
:10070000029500F02DF940F2001407F50070C2F2D6
:100710000004C4E9000520460395257684F820509E
:10072000C4E90A85E66184F83050C4E90255C4E999
:10073000045600F0BDF90220CDE9000669462046C6
:10074000029500F00DF904B0BDE8F08170B540F2FB
:100750007005C2F200050446284600F04FFB28460B
:100760004FF0FF3100F0CCFA284600F09DF980B23E
:1007700040F6E4467043000B2080284600F0EAFB78
:1007800040F2B805C2F20005284600F037FB2846C3
:100790004FF0FF3100F0B4FA284600F085F980B23E
:1007A0007043000B6080284600F0D4FB40F2001537
:1007B000C2F20005284600F021FB28464FF0FF3129
:1007C00000F09EFA284600F06FF980B27043000BEB
:1007D000A080284600F0BEFB70BD0000FEE70000D0
:1007E00080B586B0002043F630010190C4F20201CA
:1007F0000A6842F010020A60096801F010010191D4
:10080000019902908021039000200191C4F202001E
:1008100001A900F0CDFB06B080BD000043F630001A
:10082000C4F20200016847F2004C41F0010101608E
:100830000169C4F2000C41F000510161016846F207
:10084000A00241F40011016001690CF1080341F0BC
:10085000080101610020C4F202000168C4F2020232
:1008600041F44071016040F60040C4F200000021F4
:1008700081620921C162C16841F48071C1609360E5
:1008800040F24C13C2F20003D3601023536013688C
:10089000062161F35B6313601168012341F4403169
:1008A0001160116821F400711160116841F48061D8
:1008B0001160116841F480711160116863F3871150
:1008C00011601168022363F34E311160116863F304
:1008D000CC211160116841F001011160DCF80010B9
:1008E00041F00101CCF80010016841F00101016004
:1008F0007047000046F2A000C4F20200016821F037
:100900000101016047F20041C4F200010A6822F0CF
:1009100001020A6040F60042C4F20002136883F04C
:1009200001031360002393621823D36201F10803CB
:10093000836040F28C13C2F20003C3604023436023
:10094000036843F001030360086840F00100086099
:10095000106840F001001060704700007047000010
:1009600070B581B00022009290F83C20012A03D19A
:100970000221084601B070BD0E6801220A2E80F8DF
:100980003C2009D3B2B25200D0F800E012FA86F24D
:100990001E3A0EF10C0305E0D0F800E006EB46022B
:1009A0000EF110034FF0070C1D680CFA02F4A5437A
:1009B0001D608D681C6805FA02F222431A604968BE
:1009C00006290FD801EB81014A1F71461F2351F8F8
:1009D000345F934025EA03030B60B3B203FA02F2DB
:1009E00014E000BF01EB81030C29B2B204D87146B8
:1009F00051F8304F233B03E0714651F82C4F413BF7
:100A00001F259D4024EA05059A400D600B6842F2BF
:100A1000043CC4F2010C1A43ACF541739E450A60D4
:100A20003BD1122E06D1DCF8001041F48001CCF845
:100A3000001032E026F0010110292ED1DCF8001060
:100A4000102E41F40001CCF8001026D140F208012C
:100A5000C2F2000109684DF68362C4F21B32A1FBA9
:100A60000212910C01EB8101490000910099A1B1A2
:100A7000009901390091009979B1009901390091EB
:100A8000009951B1009901390091009929B100995B
:100A90000139009100990029EAD1002180F83C1029
:100AA000084601B070BD00000068C06C70470000CF
:100AB000002804BF0120704710B50446006C0028D0
:100AC0003ED0206CC00645D4206C41F20211884310
:100AD000023042F204312064C4F20101086820F4BB
:100AE000403008600A6894E809101A43D4F810E00E
:100AF0000A604168012321F4807141604168C0F6B9
:100B0000007341EA0E214160416821F0407141606B
:100B1000416841EA0C014160816821F40061816013
:100B2000E168826811438160A16A8268994222F07B
:100B300070628260826813D122F0405119E000BFD8
:100B4000204600F065F80020606484F83C00206CCA
:100B5000C006B9D50120002184F83C1010BD00BFAB
:100B600011438160816821F040518160E16A8268AF
:100B700011438160816821F0020181608168227ED9
:100B800094F8203041EA42018160416883B141F428
:100B90000061416041684EF2000221F46041416011
:100BA000616ACFF6FF72436802EB4131194301E0FD
:100BB00021F400614160C16A40F2000C21F470012F
:100BC000C162E2696169CFF6F07CC36A0CEB025244
:100BD0001A43C262826822F40072826094F8302064
:100BE000836843EA42228260826822F480628260E3
:100BF000826842EA8121816000206064216C0122C8
:100C000062F301012164002184F83C1010BD000052
:100C100080B586B0006842F20022C4F201020021D1
:100C20009042CDE90411CDE90211019126D042F2A2
:100C30000011C4F2010188423AD042F20001C4F22C
:100C40000101884259D1002043F630010090C4F2DE
:100C500002014A6942F480724A614A6902F4807270
:100C60000092009A0090086840F00100086008684F
:100C700000F0010000900098012033E043F63000BE
:100C80000091C4F20200426942F48062426142690A
:100C900002F480620092009A0091016841F0010123
:100CA0000160006800F0010000900098042019E045
:100CB000002043F630010090C4F202014A6942F478
:100CC00000724A614A6902F400720092009A009030
:100CD000086840F001000860086800F0010000901A
:100CE0000098022001900320029000200390002031
:100CF000C4F2020001A900F05BF906B080BD00005B
:100D000070B5044600680D468268520544BF80688D
:100D10005FEAC05038D400F01FFA21680A689207D1
:100D200049D40646681C3CD0DDB90868800721D547
:100D3000086880073FD4086880071BD508688007CB
:100D400039D40868800715D50868800733D4086847
:100D500080070FD508688007E7D52CE00868800772
:100D600029D400F0F9F9801B2168A842F6D9086857
:100D70008007F3D4206C40F004002064002084F845
:100D80003C00032070BD00BF206C40F020002064B8
:100D9000002084F83C00012070BD00BF0868800777
:100DA00009D40868800706D4086880075CBF086813
:100DB0005FEA8070F2D56FF012000860206C40F49A
:100DC00000702064886810F0405F01D1207E08B177
:100DD000002070BDC86A10F4700F02D0886840050A
:100DE000F6D4206C20F480702064206CC004EFD412
:100DF000206C40F001002064002070BD10B581B06F
:100E00000021009190F83C10012903D1022001B08B
:100E100010BD00BF0468012180F83C10214651F844
:100E2000083FDB0729D10B684DF6836243F00103CD
:100E30000B6040F20803C2F200031B68C4F21B32CD
:100E4000A3FB02239A0C02EB42020092009AA2B189
:100E5000009A013A0092009A7AB1009A013A0092FF
:100E6000009A52B1009A013A0092009A2AB1009A6F
:100E7000013A0092009A002AEAD10A68036CD2076C
:100E80000AD143F01001016400F1440101200A6815
:100E90001043086056E000BF40F2017223EA0202EC
:100EA00002F5807202646268520504D5026C012367
:100EB00063F30D320264026C4FF0000E0023D20483
:100EC00044BF426C22F0060342F2043C436480F8C3
:100ED0003CE06FF02200C4F2010C2060DCF800005E
:100EE000C0060DD0ACF5417084422BD14FF60450B2
:100EF000CFF6FF705CF8000010F0405F22D125E0D3
:100F000042F20000C4F20100844217D042F20020F5
:100F1000C4F2010084420DD042F20010C4F201007C
:100F200084420FD1DCF80000C00607D0ACF5827017
:100F3000844207D1DCF80000C00603D4086810F032
:100F4000405F03D0002001B010BD00BF4FF08040D3
:100F50009DE7000090F83C10012904BF0220704773
:100F600001688A6822F001028A608968C90705D190
:100F7000016C41F20112914301310164002180F8BA
:100F80003C10084670470000B0B5044600F0E4F895
:100F9000054640F20000C2F200000078611C18BF54
:100FA000044400BF00F0D8F8401BA042FAD3B0BD03
:100FB0002DE9F04F82B000F13E4241F6004502F1CA
:100FC000FF77C4F20205082243F6004E4FEAB72627
:100FD000A84208BF0722C4F2010E072E38BF4FEA0D
:100FE000B7220125002600274FF00008009208E0F4
:100FF00008F101080437B8F1100F06F1020600F0FD
:10100000A7800C6805FA08F914EA090FF0D0D1F8A6
:1010100004B003220BF0030CACF10104B240012C2C
:101020006FEA020A10D88268CC6802EA0A02B44069
:10103000224382604268CBF3001422EA090204FAD8
:1010400008F42243426005E0BCF1030F02D14FF0E7
:10105000030C20E0C2688C6802EA0A02B440224312
:10106000BCF1020FC26016D16FF0030202EA58020F
:101070000244D2F820C007F01C050F230C69AB40D6
:101080002CEA030304FA05F52B431362D1F804B0EC
:1010900001250BF0030C02680CFA06F302EA0A02BF
:1010A0001A431BF4403F0260A2D0002243F64403DF
:1010B0000192C4F202031A684FF6084C42F48042CF
:1010C0001A601A68CFF6FF7C02F480420192019AFE
:1010D00028F00302724452F80C3007F00C050F247C
:1010E000AC40A343009C04FA05F52B4342F80C30B6
:1010F000DEF808204B6842EA090543F60C4CDC0296
:1011000058BF22EA0905CEF80850C4F2010CDCF8F9
:1011100000209C0242EA090558BF22EA0905CCF8E2
:101120000050DEF804209C0342EA090558BF22EA79
:101130000905CEF80450DEF80020DB0342EA090579
:1011400058BF22EA0905CEF80050012550E700BF3C
:1011500002B0BDE8F08F000040F24810C2F200007B
:101160000068704740F2000040F24811C2F20000EF
:10117000C2F2000100780A6810440860704700005D
:1011800080B543F60040C4F20200016841F40071EA
:101190000160016841F480610160016841F480717F
:1011A0000160032000F074F80F2000F005F800F053
:1011B00027F8002080BD000070B540F20006C2F2A2
:1011C000000640F208013278C2F200014FF47A734F
:1011D0000968B3FBF2F20446B1FBF2F1084600F0F5
:1011E00007FB0F2C4FF0010508D838B94FF0FF303E
:1011F00021460022002500F01FF87460284670BDCB
:1012000082B0002043F640010190C4F202014A6816
:1012100042F480424A604A6802F480420192019A94
:101220000090086840F080500860086800F0805026
:101230000090009802B0704710B54EF60C5CCEF2EC
:10124000000CDCF80030C3F3022E8EF00704042CEF
:1012500028BF0424BEF103034FF0FF3E0EFA04F44E
:1012600038BF0023A14399400EFA03F39A43114378
:1012700000F00F0200F160430901043A03F56443F2
:101280006244002848BF02F10C03197010BD000031
:101290004EF60C51CEF200010A684FF6FF031A40D9
:1012A00060F30A2242F0806040F0FD7008607047F1
:1012B0002DE9F041002800F08B8043F60808C4F2C5
:1012C00002080446D8F8F8030D4600F007008842EB
:1012D00007D288F8F853D8F8F80300F00700A842BE
:1012E00076D12068810717D5410705D5D8F80010B9
:1012F00041F4E051C8F80010010705D5D8F80010F6
:1013000041F46041C8F80010D8F80010A26821F03C
:10131000F0011143C8F80010C0073FD1D8F8F80316
:1013200000F00700A84207D988F8F853D8F8F80366
:1013300000F00700A8424BD12068410707D5D8F834
:101340000010E26821F4E0511143C8F800100007D2
:1013500008D5D8F80000216920F4604040EAC100B7
:10136000C8F8000000F054F8D8F8001043F66832CE
:10137000C1F30311C0F60002515C40F2080220FAEA
:1013800001F140F20400C2F200000068C2F2000263
:101390001160FFF711FF0020BDE8F0816068811E39
:1013A000022907D258F8081C89015CBF0120BDE85A
:1013B000F08111E0012807D158F8081C89035CBFAF
:1013C0000120BDE8F08107E058F8081C890703D424
:1013D0000120BDE8F08100BFD8F8001021F0030122
:1013E0000843C8F80000FFF7B7FE064641F2883709
:1013F000D8F80000616800F00C00B0EB810F8DD0D0
:10140000FFF7AAFE801BB842F2D90320BDE8F081A5
:1014100010B543F60404C4F20204606800F00C0046
:1014200008280BD0042819BF42F20040C0F2F40093
:1014300047F64000C0F27D1010BD00BF2068216853
:101440002368490247F64001C0F27D1100F03F02D7
:10145000C3F388105CBF42F20041C0F2F401A1FB6B
:1014600000010023FEF704FF21680222C1F30141BD
:1014700002EB4101B0FBF1F010BD00002DE9F0419D
:1014800082B0002868D00446007843F60006C00702
:10149000C4F202060BD0B06800F00C00042840F043
:1014A0009F803068800302D56068002854D020787F
:1014B00080071AD5B06810F00C0F09D0B06800F0A2
:1014C0000C00082840F0A6807068400200F1A2805D
:1014D0003068800702D5E06801283DD13068216975
:1014E00020F0F80040EAC10030602078000737D4CF
:1014F000207840074CD4A56955B3B06800F00C00C3
:10150000082840F0BB80012D26D07068E16900F406
:1015100080028A4220D1216A00F03F028A421BD118
:1015200047F6C071626A0140B1EB821F14D1A16A13
:101530004FF6FF73C903994300F44032A1F580319F
:101540008A4209D1E16A00F07060B0EB016F03D10B
:10155000002002B0BDE8F081012002B0BDE8F081BA
:101560006069002840F20000C4F2472076D00121D3
:10157000C0F8801EFFF7F0FD054600BF706F8007C2
:10158000B6D4FFF7E9FD401B0228F7D9DDE000BF24
:10159000306C10F080580AD100200190306C40F07F
:1015A00080503064306C00F080500190019847F218
:1015B0000007C4F200073868C00541D4386840F419
:1015C00080703860FFF7C8FD054600BF3868C00569
:1015D00036D4FFF7C1FD401B0228F7D9B5E000BFA4
:1015E000B06800F00C00082803D1706840023FF595
:1015F00058AF6068B0F5803F07D0B0F5A02F40F03D
:101600008D80306840F480203060306840F4803055
:1016100030608DE0E068002852D00020C4F24720FE
:1016200001210160FFF798FD054600BF3068800783
:101630003FF554AFFFF790FD401B0228F6D984E038
:10164000A068012805D005284ED1306F40F0040075
:101650003067306F40F0010030674FE00021C0F884
:10166000801EFFF779FD0546706F80077FF540AF5C
:10167000FFF772FD401B0228F6D966E00027C4F28E
:10168000472700203866FFF767FD022D05460BD17E
:10169000306880015ED5FFF75FFD401B02284FF0E8
:1016A0000300F5D955E700BF306880017FF550AFE2
:1016B000FFF752FD401B02284FF00300F4D948E722
:1016C0000020C4F2472000210160FFF745FD0546D8
:1016D000306880077FF509AFFFF73EFD401B022809
:1016E0004FF00300F4D934E7316F002821F00101F5
:1016F0003167316F21F0040131674DD0FFF72CFDC8
:10170000054641F2883700BF306F800756D4FFF797
:1017100023FD401BB842F7D917E000BF316800280D
:1017200021F480313160316821F4802131604FD063
:10173000FFF712FD054600BF306880033FF5B7AEE6
:10174000FFF70AFD401B6428F6D9032002B0BDE86C
:10175000F08100BF04F11C052FCD084340EA821040
:10176000D9034FF6FF729143A1F5803140EA05603D
:101770000843706001203866FFF7EEFC044600BFA6
:10178000306880013FF5E4AEFFF7E6FC001B02285D
:101790004FF00300F4D9DCE6FFF7DEFC054641F22A
:1017A000883700BF306F800708D5FFF7D5FC401B96
:1017B000B8424FF00300F5D9CBE600BFB8F1000FF7
:1017C0007FF499AE306C20F08050306493E600BF17
:1017D000FFF7C2FC054600BF306880037FF567AEA7
:1017E000FFF7BAFC401B64284FF00300F4D9B0E6C1
:1017F000411E0020B0EB116F1CBF012070474EF25C
:101800001002CEF2000251604EF62351CEF20001DA
:10181000F0230B700721906011607047FEE7000015
:101820000020012100F0E2BB01290DD0002918BFE2
:1018300070474FF6FE71C0F2FF3161F39F10C1B2E5
:10184000002000F0D3BB00BF60F03F00C1B2002019
:1018500000F0CCBBB0B582B043F63000C4F2020059
:10186000016840F2184441F0040101600168C4F2CB
:10187000020441F002010160016840F6004541F0B8
:1018800008010160D4F8E813012060F39751C4F80F
:10189000E8134FF60441C4F20205CFF6FF716A580F
:1018A00022F400626A504FF60C42CFF6FF72AB583A
:1018B00023F44003AB50D4F8E83360F31553C4F875
:1018C000E8336B5823F480636B50A95821F440111E
:1018D000A95054F8181C4FF0006260F38F3144F89F
:1018E000181C54F8141C21F0800144F8141C54F8FE
:1018F0000C1C21F4404144F80C1C4FF61841CFF663
:10190000FF716A504FF080626A504FF4000121600D
:10191000296860F301012960696821F001016960AB
:10192000E96821F00301E960296860F38301296017
:10193000696821F002016960E96821F00C01E96041
:10194000296860F305112960696821F00401696064
:10195000E96821F03001E960296860F387112960A6
:10196000696821F008016960E96821F0C001E96057
:10197000296860F309212960696821F01001696014
:10198000E96821F44071E960296860F38B212960DE
:10199000696821F020016960E96821F44061E9602B
:1019A000296860F30D312960696821F040016960A0
:1019B000E96821F44051E960296860F38F312960BA
:1019C000686820F080006860E86820F44040E860C3
:1019D00000F0C8F80028FBD16420019040F2080014
:1019E000C2F2000090ED001A9FED5D0AB8EE411AB8
:1019F00081EE001A019901EBC10141F39B0102EE56
:101A0000101AB8EEC22A21EE021ABCEEC11A8DEDF0
:101A1000001A00BF0099013900910BD000990139DB
:101A2000009107D000990139009103D00099013944
:101A30000091EFD1802121606421019190ED001A85
:101A40000199B8EE411A81EE001A01EBC10141F390
:101A50009B0102EE101AB8EEC22A21EE021ABCEE69
:101A6000C11A8DED001A00BF0099013900910BD009
:101A700000990139009107D000990139009103D0F4
:101A8000009901390091EFD14FF40001216020212C
:101A900069616421019190ED001A0199B8EE411A33
:101AA00081EE001A01EBC10141F39B0102EE101A15
:101AB000B8EEC22A21EE021ABCEEC11A8DED001A50
:101AC0000099013900910BD000990139009107D09C
:101AD00000990139009103D0009901390091EFD1AB
:101AE000802121606421019190ED001A0198B8EEE7
:101AF000411A81EE000A00EBC00040F39B0001EEAA
:101B0000100AB8EEC11A20EE010ABCEEC00A8DED33
:101B1000000A00BF0098013800900BD000980138EF
:101B2000009007D000980138009003D00098013849
:101B30000090EFD14FF4000020600020282100F039
:101B400055FA00200C2100F051FA0020062100F087
:101B50004DFA0020012102B0BDE8B04000F046BAC5
:101B60000024744B10B582B040F60040C4F202006D
:101B7000026840F60C4122F00302C4F20201026046
:101B80000A6840F2080422F003020A600268C2F206
:101B9000000422F00C0202600A689FED260A22F07F
:101BA0000C020A60026822F0300202600A6822F029
:101BB00030020A60026822F0C00202600A6822F065
:101BC000C0020A60026822F4407202600A6822F4CD
:101BD00040720A60026822F4406202600A6822F4DD
:101BE00040620A60026822F4405202600A6822F4ED
:101BF00040520A60026822F4404202600A6822F4FD
:101C000040420A606422019294ED001A019BB8EEF2
:101C1000411A81EE001A03EBC30343F39B0302EE68
:101C2000103AB8EEC22A21EE021ABCEEC11A8DEDAE
:101C3000001A01E00024744B009B013B00930BD081
:101C4000009B013B009307D0009B013B009303D016
:101C5000009B013B0093EFD14FF6184ECFF6FF7E6D
:101C60004FF0006340F80E3050F80E3043F48063BC
:101C700040F80E306423019394ED001A019BB8EEF6
:101C8000411A81EE001A03EBC30343F39B0302EEF8
:101C9000103AB8EEC22A21EE021ABCEEC11A8DED3E
:101CA000001A00BF009B013B00930BD0009B013B3F
:101CB000009307D0009B013B009303D0009B013BA6
:101CC0000093EFD14FF61803CFF6FF738022C25076
:101CD0006422019294ED001A019AB8EE411A81EE45
:101CE000001A02EBC20242F39B0202EE102AB8EE87
:101CF000C22A21EE022ABCEEC22A8DED002A00BFC4
:101D0000009A013A00920BD0009A013A009207D053
:101D1000009A013A009203D0009A013A0092EFD162
:101D20006422D1F804C00192019A02EBC20242F38C
:101D30009B0202EE102AB8EEC22A21EE021ABCEE75
:101D4000C11A8DED001A00BF009A013A00920BD023
:101D5000009A013A009207D0009A013A009203D00B
:101D6000009A013A0092EFD14FF40002C25064226F
:101D7000019294ED001A019AB8EE411A81EE001A10
:101D800002EBC20242F39B0202EE102AB8EEC22A14
:101D900021EE021ABCEEC11A8DED001A009A013A2A
:101DA00000920BD0009A013A009207D0009A013AB3
:101DB000009203D0009A013A0092EFD18022C250E3
:101DC0006422019294ED001A019AB8EE411A81EE54
:101DD000001A02EBC20242F39B0202EE102AB8EE96
:101DE000C22A21EE021ABCEEC11A8DED001A00BF04
:101DF000009A013A00920BD0009A013A009207D063
:101E0000009A013A009203D0009A013A0092EFD171
:101E10004FF40002C2500268012363F30102026022
:101E200051F8082C22F0010241F8082C0A6822F02F
:101E300003020A60026863F38302026051F8082C0F
:101E400022F0020241F8082C0A6822F00C020A6013
:101E5000026863F30512026051F8082C22F00402B4
:101E600041F8082C0A6822F030020A60026863F325
:101E70008712026051F8082C22F0080241F8082C61
:101E80000A6822F0C0020A60026863F30922026055
:101E900051F8082C22F0100241F8082C0A6822F4AC
:101EA00040720A60026863F38B22026051F8082CCA
:101EB00022F0200241F8082C0A6822F440620A60ED
:101EC000026863F30D32026051F8082C22F04002E0
:101ED00041F8082C0A6822F440520A60026863F351
:101EE0008F32026051F8082C22F0800241F8082C51
:101EF0000A6822F440420A606421019194ED001ABC
:101F00000199B8EE411A81EE001A01EBC10141F3CB
:101F10009B0102EE101AB8EEC22A21EE021ABCEEA4
:101F2000C11A8DED001A00BF0099013900910BD044
:101F300000990139009107D000990139009103D02F
:101F4000009901390091EFD14FF0806140F80E10F7
:101F50006420019094ED001A0198B8EE411A81EEC8
:101F6000000A00EBC00040F39B0001EE100AB8EE3F
:101F7000C11A20EE010ABCEEC00A8DED000A00BFB6
:101F80000098013800900BD000980138009007D0DD
:101F900000980138009003D0009801380090EFD1EC
:101FA0005FFA8CF0C00902B010BD000070B50D469C
:101FB00004460020012100F019F82078002818BFFD
:101FC000002D12D06D42013C002600BFC1B201209D
:101FD00000F00CF8A078013546F10001002808BF98
:101FE00070BD002904F10104F0D070BDB0B582B01D
:101FF0000C460546FFF7B6FD0028FBD1012D05D0A4
:10200000002D40F0C6804FF0006101E04FF4006108
:1020100040F2184040F61442C4F20200C4F2020238
:10202000C0F8001404F0F00111606421019140F245
:102030000801C2F2000191ED001A9FED570AB8EEB7
:10204000411A81EE001A019D230105EBC50545F3F8
:102050009B0502EE105AB8EEC22A21EE021ABCEE1F
:10206000C11A8DED001A00BF009D013D00950BD0F7
:10207000009D013D009507D0009D013D009503D0D6
:10208000009D013D0095EFD18025056064250195F7
:1020900091ED001A019DB8EE411A81EE001A05EB90
:1020A000C50545F39B0502EE105AB8EEC22A21EE93
:1020B000021ABCEEC11A8DED001A00BF009D013D51
:1020C00000950BD0009D013D009507D0009D013D7E
:1020D000009503D0009D013D0095EFD103F0F00382
:1020E0004FF40005056013606422019291ED001A1F
:1020F000019AB8EE411A81EE001A02EBC20242F3D5
:102100009B0202EE102AB8EEC22A21EE021ABCEEA1
:10211000C11A8DED001A00BF009A013A00920BD04F
:10212000009A013A009207D0009A013A009203D037
:10213000009A013A0092EFD180220260642201925B
:1021400091ED001A0199B8EE411A81EE000A01EBF7
:10215000C10141F39B0101EE101AB8EEC11A20EE45
:10216000010ABCEEC00A8DED000A00BF00990139DA
:1021700000910BD000990139009107D000990139E5
:10218000009103D0009901390091EFD14FF4000183
:10219000016002B0B0BD00BF0024744B01460120B5
:1021A000FFF724BF70B50278002A18BF002912D0AB
:1021B0004C42451E002600BFD1B20120FFF716FF9A
:1021C000AA78013446F10000002A08BF70BD00283B
:1021D00005F10105F0D070BDF0B581B02DED068B95
:1021E00040F28C209FEDE20BC2F200009FEDE28AEC
:1021F0009FEDE2AA9FEDE29AA0F1100655EC104B7C
:10220000002700BF00EE107AB8EEC00A20EE080AE0
:1022100020EE0A0A10EE100A01F08CFB41EC100BC4
:1022200000F072FA51EC100B22462B4601F08AF9AD
:1022300000F0FAFE00EE100A30EE090ABCEEC00A09
:1022400010EE100A46F8100F781C00EE100AB8EED7
:10225000C00A20EE080A20EE0A0A10EE100A01F069
:1022600069FB41EC100B00F04FFA51EC100B2246C9
:102270002B4601F067F900F0D7FE00EE100A30EEB1
:10228000090ABCEEC00AB81C86ED010A00EE100A6D
:10229000B8EEC00A20EE080A20EE0A0A10EE100A74
:1022A00001F048FB41EC100B00F02EFA51EC100B42
:1022B00022462B4601F046F900F0B6FE00EE100A69
:1022C00030EE090ABCEEC00AF81C86ED020A00EEE8
:1022D000100AB8EEC00A20EE080A20EE0A0A10EE34
:1022E000100A01F027FB41EC100B00F00DFA51EC45
:1022F000100B22462B4601F025F900F095FE00EE6A
:10230000100A30EE090A0437BCEEC00AB7F5807F28
:1023100086ED030A7FF476AF40F28C10C2F2000023
:102320009FED98AAA0F11006002700BF00EE107ADA
:10233000B8EEC00A20EE080A20EE0A0A10EE100AD3
:1023400001F0F8FA41EC100B00F0DEF951EC100B43
:1023500022462B4601F0F6F800F066FE00EE100A69
:1023600030EE090ABCEEC00A10EE100A46F8100F53
:10237000781C00EE100AB8EEC00A20EE080A20EE23
:102380000A0A10EE100A01F0D5FA41EC100B00F029
:10239000BBF951EC100B22462B4601F0D3F800F0AC
:1023A00043FE00EE100A30EE090ABCEEC00AB81C6B
:1023B00086ED010A00EE100AB8EEC00A20EE080A07
:1023C00020EE0A0A10EE100A01F0B4FA41EC100BEC
:1023D00000F09AF951EC100B22462B4601F0B2F8AE
:1023E00000F022FE00EE100A30EE090ABCEEC00A30
:1023F000F81C86ED020A00EE100AB8EEC00A20EEC4
:10240000080A20EE0A0A10EE100A01F093FA41ECD5
:10241000100B00F079F951EC100B22462B4601F01D
:1024200091F800F001FE00EE100A30EE090A0437C0
:10243000BCEEC00A402F86ED030A7FF477AF40F26E
:102440004C10C2F200009FED50AAA0F11006002728
:1024500000EE107AB8EEC00A20EE080A20EE0A0A52
:1024600010EE100A01F066FA41EC100B00F04CF986
:1024700051EC100B22462B4601F064F800F0D4FD1D
:1024800000EE100A30EE090ABCEEC00A10EE100A87
:1024900046F8100F781C00EE100AB8EEC00A20EEC5
:1024A000080A20EE0A0A10EE100A01F043FA41EC85
:1024B000100B00F029F951EC100B22462B4601F0CD
:1024C00041F800F0B1FD00EE100A30EE090ABCEE52
:1024D000C00AB81C86ED010A00EE100AB8EEC00A68
:1024E00020EE080A20EE0A0A10EE100A01F022FA85
:1024F00041EC100B00F008F951EC100B22462B4672
:1025000001F020F800F090FD00EE100A30EE090A0C
:10251000BCEEC00AF81C86ED020A00EE100AB8EE06
:10252000C00A20EE080A20EE0A0A10EE100A01F096
:1025300001FA41EC100B00F0E7F851EC100B2246C9
:102540002B4600F0FFFF00F06FFD00EE100A30EEAA
:10255000090A0437BCEEC00A102F86ED030A7FF487
:1025600077AFBDEC068B01B0F0BD00BF00BF00BF70
:102570000000000000608340DB0FC9400000803B8A
:1025800000001B440000803C0000803DFEE700008E
:10259000FEE700007047000070470000FEF7E2BD54
:1025A0004EF68850CEF20000016841F470010160DF
:1025B00070470000FEE7000092B0FEF7E1FD06ACB8
:1025C000201D2C21FDF75CFF002543F640000195FE
:1025D000C4F20200016841F080510160006800F01F
:1025E00080500190019847F200000195C4F200006C
:1025F000016841F480410160006800F4804001906E
:102600000198022006900120099010200A9020468F
:102610000C95FEF733FF0F200DF1040ACDE90105FB
:1026200050460021CDE903550595FEF741FEFFF721
:10263000D3FDFEF7F3F8FEF75DF9FEF70DF8FFF7AF
:1026400009F9FEF7CDF820A00D21FFF7AFFC43F606
:10265000783843F68239C0F60008C0F6000900BF9A
:102660004FF47A70FEF790FCFFF7DAF82046FEF799
:102670006DF8DDF81A50BDF818700F2000212E0CEF
:10268000FFF7D2F85420FFF789FD00200021FFF763
:10269000CBF8ADB250460F2142463B460095FDF7C0
:1026A0005FFE204610214A463346FDF759FE50464C
:1026B0000F21FFF777FD00200121FFF7B5F8204635
:1026C0001021FFF76FFDCBE74C6F6164696E672ED9
:1026D0002E2E000003B401984100009850EAC1205A
:1026E00018BF04204A0D18BF40F0010040F2FF72ED
:1026F000B2EB515F08BF40F00200012808BF05207F
:1027000002B070470000000010B52F499FED2C1B50
:102710002DED020B84B0059820F000408842DCBF0C
:1027200000209DED040B32DD2849884209D1049830
:1027300040B94FF00100FDF7D2FE00F03DFC06B0BD
:1027400010BD05DB9DED040B00F02AFC06B010BDAA
:1027500068469DED040B00F03BF810F0030011D02B
:10276000012818D09DED021B9DED000B02281AD008
:1027700000F04AFA51EC100B00F04AFC06B041ECB4
:10278000100B10BD9DED021B9DED000B012000F014
:102790006FFB06B010BD9DED021B9DED000B00F020
:1027A00033FA06B010BD012000F062FB51EC100BB3
:1027B00000F02EFC06B041EC100B10BD0000000034
:1027C0000000000000000000FB21E93F0000F07F56
:1027D0002DE9F14F04462DED020B2DED088B8AB04B
:1027E0009FEDE70B80ED020B139EE74826F00045B6
:1027F00085420ADC9DED120B002084ED000B0AB02F
:10280000BDEC088B03B0BDE8F08FE0489FEDE0AB76
:102810009FEDE1BBA84247DDE14F9FEDE39B9FEDBC
:10282000E48B9DED120B53EC1A2B51EC100B002E88
:102830001CDD00F091FF41EC100BBD4208D053ECC1
:102840001B2B51EC100B00F087FFC4E900010BE0DB
:1028500053EC192B51EC100B00F07EFF53EC182BAE
:1028600000F07AFFC4E900010120C8E700F00EFC87
:1028700041EC100BBD4208D053EC1B2B51EC100B5C
:1028800000F004FCC4E900010BE053EC192B51ECFF
:10289000100B00F0FBFB53EC182B00F0F7FBC4E926
:1028A00000014FF0FF30AAE7C348A84279DB9DED55
:1028B000120B51EC100B00F09FFB41EC180B9FED3D
:1028C000C00B53EC102B00F03DFE9FEDBF1B53ECF3
:1028D000112B00F0DBFB00F0DBFD074600F007FEEC
:1028E00041EC190B53EC1A2B00F02CFE53EC182B77
:1028F00000F026FF41EC180B53EC1B2B51EC190B8D
:1029000000F020FEDFF8C8A241EC100B4FEA15588A
:102910000125FA4453EC102B51EC180B00F01CFF6E
:10292000032DC4E900013DD0C1F30A5005EB451168
:10293000A8EB00001139814234DA0AEB051BB0EE36
:1029400048AA9BED000BF0EE68AA53EC102B51EC5B
:10295000190B00F0F7FD41EC1B0B51EC1A0B53EC7B
:102960001B2B00F0F9FE41EC180B51EC1A0B53EC49
:10297000182B00F0F1FE53EC1B2B00F0EDFE9BED4D
:10298000020B41EC1A0B53EC102B51EC190B00F01D
:10299000D9FD53EC1A2B00F0DFFE41EC100B6D1C3F
:1029A000B8E70EE0002EA8BF3846BFF628AF94ED7A
:1029B000000B51EC100B00F02BFBC4E90001784236
:1029C0001DE7C6F3130040F4801EC6F30A50A0F2C0
:1029D000F530471100F01F05C5F12000DDF848B0C3
:1029E00008900020069007900520EC467949002DBC
:1029F00007EB0002794408BF51F8221009D051F8C2
:102A0000223001EB8201AB404A68089922FA01F1B9
:102A10001943A1FB0E26A1FB0B131A449A4234BFA3
:102A20000123002303EB06080CEB8003D3E901A686
:102A30000E448E4234BF0121002192448A4411B1D8
:102A4000924502D903E0924501D2012100E0002124
:102A5000C3E901A641444CF82010011EA0F1010079
:102A6000C4DC029800F10050850F0298DDE903678D
:102A70008000DDF8148000F03AFD41EC1A0B30467E
:102A800000F04CFD9FED541B53EC112B00F05AFD50
:102A900041EC1B0B384600F041FD9FED511B53EC00
:102AA000112B00F04FFD41EC180B404600F036FDB5
:102AB0009FED4D1B53EC112B00F044FD41EC190B25
:102AC00051EC180B53EC192B00F0E0FA53EC1B2BD4
:102AD00000F0DCFA53EC1A2B00F0D8FACDE908012B
:102AE000002008909DED080B53EC1A2B51EC100BB5
:102AF00000F032FE53EC1B2B00F02EFE53EC182B93
:102B000000F02AFE53EC192B00F01AFE9FED381B43
:102B100053EC112B00F016FD9FED370B41EC180B19
:102B200053EC102B9DED080B51EC100B00F00AFD3F
:102B300053EC182B00F0AAFA9FED310B41EC180B67
:102B400053EC102B9DED080B51EC100B00F0FAFC30
:102B500053EC182B00F09AFA41EC100B139810F07C
:102B6000004F06D06D4251EC100B00F051FA41ECD1
:102B7000100B284684ED000B41E600000000000029
:102B80000000000000000000FB21E93F7CD902406A
:102B900000004054FB21F93F3163621A61B4D03D1B
:102BA000FB21F93F000000000000601A61B4D03D35
:102BB0007370032E8A19A33BFB21394100000000EA
:102BC00083C8C96D305FE43F000000000000E03FB3
:102BD0005A110000A8100000000000000000103E84
:102BE000000000000000103C000000000000103A4F
:102BF000182D4454FB21F93D3326A611460B113CF8
:102C000000000054FB21F93D10B52DED040B2DED16
:102C1000088B82B0B0EE419AF0EE619A0B9820F0EA
:102C200000449FED4BABB4F1795F11DA9DED0A0BD7
:102C300051EC100B00F02CFC002801BFB0EE4A0A4A
:102C4000F0EE6A0A02B0BDEC088B04BF04B010BD00
:102C50009DED0A0B53EC102B51EC100B00F072FCA5
:102C600041EC180B3C480621B0EE480AF0EE680A29
:102C7000784400F081F853EC182B51EC100B00F065
:102C800061FC9DED0A0B41EC1B0B53EC192B51EC35
:102C9000100B00F057FC41EC190B53EC1B2B51ECC3
:102CA000180B00F04FFC53EC192B00F055FD9FED75
:102CB0002C0B41EC190B53EC102B51EC180B00F0C2
:102CC00041FC41EC100B2848844210DA53EC192BDC
:102CD00051EC100B00F040FD53EC1A2B00F030FDCE
:102CE00041EC100B02B0BDEC088B04B010BD1F48C6
:102CF000A042BCBF9FED1E1B8DED001B06DBA4F5A3
:102D000000100190002000909DED001B51EC100B75
:102D100053EC112B00F020FD9DED000B41EC180B46
:102D200053EC102B51EC1A0B00F016FD41EC1A0B72
:102D300053EC192B51EC180B00F00EFD53EC1A2B31
:102D400000F0FEFC41EC100BCCE70000000000009E
:102D5000000000000000F03FCC0D0000000000006B
:102D6000000000000000E03F3333D33F0000E93FA4
:102D7000000000000000D23F70B504462DED028B2C
:102D80004D1E00EBC500B0EE408AF0EE608A90ED7B
:102D9000000B35F0060017D053EC182B51EC100B3C
:102DA00000F0D0FB41EC100B6D1E04EBC50090ED64
:102DB000001B51EC100B53EC112B00F067F941ECA8
:102DC000100B35F00600E7D1022D36D0042D1CD0B3
:102DD000062D1CBFBDEC028B70BD53EC182B51ECC3
:102DE000100B00F0AFFB94ED0A1B53EC112B00F01D
:102DF0004DF953EC182B00F0A5FB94ED081B53EC98
:102E0000112B00F043F941EC100B53EC182B51EC53
:102E1000100B00F097FB94ED061B53EC112B00F008
:102E200035F953EC182B00F08DFB94ED040B53ECAB
:102E3000102B00F02BF941EC100B53EC182B51EC3C
:102E4000100B00F07FFB94ED021B53EC112B00F0F4
:102E50001DF953EC182B00F075FB94ED001B53EC9F
:102E6000112B00F013F9BDEC028B41EC100B70BD7F
:102E700031B504462DED040B2DED0A8BB0EE41BAB1
:102E8000F0EE61BA0B989DED0A0B20F00040B0F116
:102E9000795F0DDA51EC100BFFF71CFC042808BF1A
:102EA00000F09AF89DED0A0BBDEC0A8B05B030BD21
:102EB00053EC102B51EC100B00F044FB41EC180BC1
:102EC0009DED0A0B53EC182B51EC100B00F03AFB64
:102ED00041EC190B2C48B0EE480AF0EE680A0521C7
:102EE0007844FFF749FF9FED2ACBB0EE40AAF0EE01
:102EF00060AA9CB353EC1C2B51EC190B00F022FB85
:102F000041EC1C0B53EC1A2B51EC190B00F01AFB83
:102F10009FED210B41EC190B53EC102B51EC1B0BCB
:102F200000F010FB53EC192B00F016FC53EC182B9F
:102F300000F008FB53EC1B2B00F00EFC53EC1C2B99
:102F400000F00AFC9DED0A1B53EC112B00F0F8FB7E
:102F5000BDEC0A8B05B041EC100B30BDFFE753EC24
:102F60001A2B51EC180B00F0EDFA53EC1C2B00F06F
:102F70008DF853EC192B00F0E5FA9DED0A1B53EC8C
:102F8000112B00F083F8E3E75C0C00000000000068
:102F9000495555555555C5BF000000000000E03F9C
:102FA00010B553EC102B51EC100B00F06FF841EC06
:102FB000100B10BD000000009FED050B10B553EC89
:102FC000102B51EC100B00F009F941EC100B10BD67
:102FD00000000000000000009FED050B10B553EC51
:102FE000102B51EC100B00F0ADFA41EC100B10BDA2
:102FF000000000000000001082B0CDE9000121F0C7
:10300000004001909DED000B02B051EC100B704799
:1030100081F00041704780F00040704721F000418E
:10302000704720F00040704721F0004201F000435B
:10303000A2F16052B2F5801F28BFD2F17F6C0BD98C
:103040005FEA001C43EAC20242EB507018BF7047AF
:1030500028BF20F001007047B2F5801FBCBF1846A2
:1030600070474FEA410C1CF5001F02D2084600F0E1
:10307000DFBC70B500F010FB00000089FFF7F6BF61
:103080004FF00040A0F580007047000010B591EAB5
:10309000030F48BF83F0004300F16683841A71EB8D
:1030A000030C05D2121943EB0C03001B61EB0C015E
:1030B0004FEA1154A4EB135CDFF81CE11EEA430F46
:1030C00018BF9EEA445F00F0748021EA045123EAAD
:1030D0000E0343F48013DCF1200E32D322FA0CFEEF
:1030E00010EB0E0023FA0CFE41EB0E01CCF1200E8A
:1030F00003FA0EFE10EB0E00CCF1200E51F1000190
:10310000B1F5801F32D201EB045112FA0EF2BDE884
:10311000104058BF7047401C38BF5FEA420218BFDA
:103120007047002814BF20F0010041F100014FEA70
:10313000410313F5001F38BF7047A1F1C04100F0F3
:10314000F9BA012A43EB0302ACF1200CDCF11F0EAB
:1031500032BF4FF0000E23FA0CF310EB030041EBEB
:103160000451B4EB115FD0D0A1EB045101F58011F3
:10317000490801EB04515FEA30000ED350F1000022
:1031800038BF12FA0EFE08D1BDE81040C9E7401C56
:1031900038BF5FEA4202CAD1C3E7BDE810404FEA38
:1031A000410313F5001F38BF7047A1F1C04100F083
:1031B000C1BA9EEA445F08D011EA5E0FBDE8104034
:1031C00004BF01F0004100207047BDE8104070B519
:1031D00000F062FA64FBBE3E0000E0FF2DE9C04152
:1031E00030B4DFF8A4C23CEA111418BF3CEA13144F
:1031F00000F0ED801CEA111481EA030544EAD5745D
:1032000018BF1CEA131500F0C880A4EB050404F1F4
:103210007F7404F500344FF0004545EAC12145EACA
:10322000C32341EA505143EA52534FEAC0204FEAC8
:10323000C222994208BF904200F09D804FEA136578
:103240000FF24416765D4FEA134506FB05F7C7F10A
:10325000807706FB07F74FEAD737A7FB036876426C
:10326000A7FB06CEC8F5803838BFA8F1010807FBD8
:1032700008E6A6FB028C4FF0000EE6FB03CEDCF165
:10328000000CCEF1004E38BFAEF1010EA6FB0C587B
:103290004FF00007E6FB0E87A1FB08C6A0FB07CE98
:1032A00016EB0E064FF0000545F10005E1FB076542
:1032B00015F1E04E7EBFA4F580345FEA46066D410D
:1032C00016F1800745F100054FEA172747EA056721
:1032D0004FEA15254FEA0666A6F1DE46B6F1805F95
:1032E00020D9384605EBC47124F0010C01EB0C1118
:1032F000BCF1FE6F02D8F0BCBDE8008124425CBF87
:1033000001F5801E9EEAC47F02D4F0BCBDE80081B6
:10331000244200F13980A1F1C041F0BCBDE8004178
:1033200000F008BA4FEAD02040EA41504FEAD121DC
:103330004FEAD22242EA43524FEAD323A7FB028646
:1033400007FB036605FB02661EEA0E0F58BFA6EBDD
:103350000056B6EB00564FEA520E4EEAC37E18EB0B
:103360000E0E56EB530EBCD518EB02085E417F1CC7
:1033700055F10005B5E74FF480154FF000074FF009
:1033800000064FF00008ACE701F1C04101F0004138
:103390004FF00000F0BCBDE800810CEA131511EA03
:1033A0000C1F00D00CE013EA0C1F00F026804FF039
:1033B000000081EA030101F00041F0BCBDE800819A
:1033C000F0BCBDE8004181EA030100F0B3B9F0BCF4
:1033D000BDE8004170B500F05FF900BF097EFC3E1A
:1033E00000F007B84FF0000081EA030101F000414E
:1033F000704781EA030100F09DB9F0BCBDE80041CF
:1034000022494FF000007047FFFDFBF9F7F5F4F299
:10341000F0EEEDEBE9E8E6E4E3E1E0DEDDDBDAD86F
:10342000D7D5D4D3D1D0CFCDCCCBCAC8C7C6C5C4CD
:10343000C2C1C0BFBEBDBCBBBAB9B8B7B6B5B4B3E4
:10344000B2B1B0AFAEADACABAAA9A8A8A7A6A5A4CF
:10345000A3A3A2A1A09F9F9E9D9C9C9B9A99999893
:103460009797969595949393929191908F8F8E8E36
:103470008D8C8C8B8B8A89898888878786858584C3
:1034800084838382828181800000FF070000F87FAF
:103490004FEA41034FEA5353A3F58063D3F11E0370
:1034A000C8BFD3F1210C0CDD4FF0004242EAC1222B
:1034B00042EA505232FA03FC8CEAE17CACEBE17058
:1034C0007047102BC4BF0020704703F5787CBCF117
:1034D000FF3F04D06FF0004282EA2100704770B5D0
:1034E00000F0DAF84992248000207047F2E710F0EB
:1034F000004248BF4042B0FA80F310FA03F10AD00C
:10350000C3F11D0303F5806302EB03524FEA415000
:1035100002EBD12170474FF000007047B0FA80F302
:1035200010FA03F10AD0C3F11D0303F580634FEADB
:1035300003524FEA415002EBD12170474FF0000097
:103540007047000070B5DFF848C11CEA111E1EBFAD
:103550001CEA13159EEA0C0F95EA0C0F00F06F8021
:1035600081EA03044EEAD47EAE4421EA4C1123EAF8
:103570004C1341F4801143F48013AEF17F7EA1FB24
:10358000024CA0FB0365361955EB0C05A1FB034C5F
:103590004CF10003A0FB021C16EB0C06654153F135
:1035A0000003094218BF46F0010613F4007F0BD157
:1035B0004FEA03314FEA053041EA155140EA16500F
:1035C00034036FF003020AE04FEAC3214FEAC5203B
:1035D00041EA555140EA5650F4026FF0020202EB04
:1035E0002E4201EB025585EACE710AD05FEA440C07
:1035F00018BF24F0004450F1000041F1000120EA1E
:10360000D47040F2FE7C624500D270BDA84214BF67
:103610004FF080444FF04044002E08BF0024BEF11C
:10362000806FA8BFA1F1C041BDE8704080F28280E8
:1036300001F1C04101F000414FF0000070470CEA79
:1036400013159EEA0C0F18BF95EA0C0F06D081EAFD
:10365000030E4FF000000EF0004170BD00F01CF8AA
:103660008900013E00F007B800F009B84FEA430CAA
:103670005FEA5C5C08D081EA030100F05BB84FEAC6
:10368000410C5FEA5C5CF6D102494FF000007047E4
:103690000000FF070000F87F0EF1020E2EF0030E6F
:1036A0005EF8046B364205D4012A43EB030515F599
:1036B000001F12D8012841EB010C1CF5001F0CD88B
:1036C0000ED14FEAD17C0CEB4C0C0CF1020C15F531
:1036D000001F08BF4CEBD37C04E04FF0080C01E066
:1036E0004FEAD37C0CEB4C0526FA05F606F00706EC
:1036F000B6F1040C06D20EEB860CBDE870404CF01F
:10370000010C6047DFE80CF0090B02024FF00041AA
:10371000A1F500214FF0000070BD194610460128A8
:1037200051EB010418BFD4F5001484BF002001F050
:10373000004170BD0808A0F500114FEA3101704743
:1037400010B591EA030F81F000413FF5A7AC83F07B
:10375000004300F009B8000010B591EA030F48BF1C
:1037600083F000433FF59AAC841A71EB030C07D247
:103770008CF0004C121943EB0C03001B61EB0C01A5
:103780004FEA1154A4EB135CDFF8A4E11EEA430FE7
:1037900018BF9EEA445F00F0B48021EA045123EA96
:1037A0006E035242C3EB6E0338BF5B1EDCF1200E8A
:1037B00025D322FA0CFE10EB0E0043FA0CFE41EB6F
:1037C0000E01CCF1200E03FA0EFE10EB0E00CCF130
:1037D000200E51F1000129D401EB045112FA0EF22E
:1037E000BDE8104058BF7047401C1CBFB2F1004FED
:1037F000704700280CBF491C20F00100704712EBF5
:10380000020E43EB030218BF4FF0010E4EEA4202D4
:10381000ACF1200CDCF11E0E56D943FA0CFE10EB75
:103820000E00CCF11E0E51F1FF31D5D50EF1010E77
:1038300012FA0EFE404141EB010101EB445C5FEAEC
:103840005C5C10D901EB045110EBDE7038BFBEF1A7
:10385000004FBDE8104018BF704700280CBF491C3E
:1038600020F00100704734D24FEAD42C24F40064D5
:1038700011F500111BD0B1FA81F20B3AA41AA41E63
:10388000D2F12003914030FA03F31943904001EB49
:10389000CC7101EB0451002CBDE81040A8BF70476B
:1038A00001F1C04101F000414FF000007047B0FA53
:1038B00080F310FA03F102D1BDE810407047E41A1A
:1038C000173C4805C90AE2E701EB0451BDE8104086
:1038D000704749104FEA300001EB0451BDE8104039
:1038E00002E04FF0000170474A0008BF0042F8D0E4
:1038F000B2F5001F28BF704701F000414FF00000F3
:1039000070479EEA445F07D011EA5E0FBDE81040A1
:1039100004BF002100207047BDE8104070B5FFF7DC
:10392000BBFE00BF40DFF63E104683F0004170470B
:103930000000E0FF43004FEAD30C4FEA3C0C434049
:103940001FBF40070CF1605113F0FE4F70471CF091
:10395000006F03D10CF00041002070470CF00043D1
:1039600043EA507040EACC0010B500F00EF800BFFA
:10397000000000924FEA0001FFF7DCBE4FF000416B
:10398000A1F500214FF0000070470EF1020E2EF05D
:10399000030E5EF8044B244204D44FEA4102B2F114
:1039A0007F4F11D84FEA4003B3F17F4F0CD80ED1AF
:1039B0004FEAD07C0CEB4C0C0CF1020CB2F17F4FB7
:1039C00008BF4CEBD17C04E04FF0080C01E04FEA5B
:1039D000D17C0CEB4C0324FA03F404F00704B4F19B
:1039E000040C06D20EEB840CBDE810404CF0010C28
:1039F0006047DFE80CF0070802024FF00040A0F536
:103A0000800010BD0846420018BFD2F1807288BF06
:103A100000F0004010BDF1EE100A4FF6FF71C0F249
:103A2000C03120EA010040F04070E1EE100A70471A
:103A3000FF2141EAD050C00570470000000000009F
:103A40004C5555555555A53F7751C1166CC156BFBC
:103A50009015CB19A001FA3EAD529C804F7E92BECC
:103A6000C4B1B4BD9EEE213ED43888BEE9FAA8BDEB
:103A700000004054FB21F93F3163621A61B4D03D2C
:103A80000000601A61B4D03D7370032E8A19A33B05
:103A90000000002E8A19A33BC14920259A837B3957
:103AA00000000000000000006E83F9A22915444EBA
:103AB000D15727FCC0DD34F5999562DB4190433C3A
:103AC000AB6351FE61C5BBDE3A6E24B7E0D24D4216
:103AD000EA2E49061C92D1091CEB1DFE3EA729B116
:103AE000F53582E88444BB2E26709CE9417E5FB4A4
:103AF00039D69139F43953838B5F849C3B28F9BDC7
:103B0000FF97F81F0F9805DE8B112FEF1F6D0A5AD4
:103B1000CF7E366DB709CB27663F464F2DEA5F9EB5
:103B2000C7BA27757BF1E5EBF739073DEA92528A70
:103B3000B15FFB6B085D8D1F46300356000000002F
:103B4000A6F810111111813FD561C119A0012ABF3A
:103B50007DFEB157E31DC73EEB9C2B8AE6E55ABEBE
:103B60007CD5CF5A3AD9E53D0000000000000000A6
:103B70000102030406070809413A256420423A2558
:103B80006400433A25640000A83B000800000020C0
:103B900010000000C4010008B83B0008100000201D
:103BA000800C0000E001000801000000100000008F
:083BB0000024F40000000000F5
:040000050800018965
:00000001FF
